:04000000F1EF32F0FA
:101000000048656C6C6F20776F726C64210D0A006C
:10101000222A2B2C3A3B3C3D3E3F5B5D7C7F0068A7
:10102000656C6C6F2E747874000045C0D9FF46C0A3
:10103000DAFF000EDE6E000EDD6E47C001F048C024
:1010400002F080EC2CF001C080F002C081F00001C1
:1010500081AF02D00B0E1200D89000018035D96EFE
:1010600000018135DA6ED40ED926000EDA22DECFE9
:1010700098F0DDCF99F00001985100019911D8A4A2
:1010800002D00C0E120045C0D9FF46C0DAFF98C04E
:10109000DEFF99C0DDFF98C0D9FF99C0DAFFDF50AD
:1010A000D8B41AD0000120EE01F09851D9269951F8
:1010B000DA22DF505EEC33F000018C6F00018CB15E
:1010C0000BD04950D8B405D000018CA502D00A0E2F
:1010D0001200000E120000D098C0D9FF99C0DAFFAC
:1010E000000EDF6E000120EE01F09851D9269951D3
:1010F000DA2280C0DFFF000120EE01F09851D926EE
:101100009951DA22DF50CEEC25F000018C6F0001FE
:101110008CA102D0030E12004950D8B405D00001B2
:101120008CA502D00A0E1200000E0001916F000E75
:10113000926F000E936F000E946F98C03BF099C0B1
:101140003CF091C03DF092C03EF093C03FF094C09F
:1011500040F00CEC2DF00001976F00019705D8A42A
:10116000D4D001D0D2D0000E0001966F000E956F42
:101170000001965168E1040E0001955DD8B063D07E
:1011800001D061D0EC0E4A6E010E4B6E95C04CF052
:1011900096C04DF04C3A4D3AF00E4D164C500F0B98
:1011A0004D12F00E4C164A504C264B504D224C50CE
:1011B0000001982500017A6F4D500001992100012E
:1011C0007B6F000120EE04F07A51D9267B51DA22A0
:1011D000DF50D8A40AD0000E0001706F000E716FAE
:1011E000000E726F000E736F0FD0000120EE08F03A
:1011F0007A51D9267B51DA22DECF70F0DECF71F042
:10120000DECF72F0DECF73F0600E4A6E000E4B6ED2
:10121000D89000019535D96E00019635DA6ED890D8
:10122000D936DA364A50D9264B50DA2270C0DEFF62
:1012300071C0DEFF72C0DEFF73C0DEFF0001954BA0
:10124000962B96D700D0000E0001966F000E956F7A
:101250000001955100019611D8B405D00001950701
:10126000D8A0960700D0600E4A6E000E4B6ED89044
:1012700000019535D96E00019635DA6ED890D936D1
:10128000DA364A50D9264B50DA22DECF91F0DECF43
:1012900092F0DECF93F0DECF94F000019151000187
:1012A00092110001931100019411D8A406D0000EF0
:1012B0000001756F020E746F14D098C03BF099C096
:1012C0003CF091C03DF092C03EF093C03FF094C01E
:1012D00040F00CEC2DF04A6E4A500001746F756BB3
:1012E00000D074C097F0000197510001D8B40DD020
:1012F0000001954B962B0001965107E1040E000169
:10130000955DD8B002D0AFD700D0030E0001971979
:10131000D8A402D0010E1200000197510001D8B4E8
:1013200002D00D0E1200000120EE39F09851D9269E
:101330009951DA22DE5004E1020EDE18D8B402D050
:101340000D0E1200000120EE44F09851D92699515B
:10135000DA22DECF4AF0DDCF4BF04AC08DF04BC031
:101360008EF000018F6B906B00018D5100018E118A
:1013700000018F1100019011D8A40FD0000120EEC0
:1013800052F09851D9269951DA22DECF8DF0DECF76
:101390008EF0DECF8FF0DECF90F0000120EE16F061
:1013A0009851D9269951DA228DC0DEFF8EC0DEFF1A
:1013B0008FC0DEFF90C0DEFF000120EE3EF09851AE
:1013C000D9269951DA22000110EE03F09851E12656
:1013D0009951E222DFCFE7FF000120EE03F09851A0
:1013E000D9269951DA22DE04D8B40DD0000120EEBE
:1013F00003F09851D9269951DA22020EDE18D8B49A
:1014000002D00D0E12008DC001F08EC002F08FC010
:1014100003F090C004F0000120EE03F09851D926AB
:101420009951DA22DF504A6E4A50056E066A076A01
:10143000086A13EC32F001C08DF002C08EF003C0D8
:101440008FF004C090F0000120EE3BF09851D926B7
:101450009951DA22000110EE02F09851E1269951DB
:10146000E222DFCFE7FF000120EE02F09851D926FB
:101470009951DA22DF50D8B423D0FF0E4A6EFF0E06
:101480004B6E000120EE02F09851D9269951DA22D4
:10149000DF504C6E4D6A4A504C264B504D22000195
:1014A00020EE02F09851D9269951DA22DF504E6E83
:1014B0004E504C16000E4D164C504D10D8B402D064
:1014C0000D0E1200000120EE3FF09851D9269951DF
:1014D000DA22000110EE08F09851E1269951E2223B
:1014E000DECFE6FFDDCFE5FF000120EE08F09851EA
:1014F000D9269951DA22DECF4AF0DDCF4BF00F0E1C
:101500004A16000E4B164A504B10D8B402D00D0E9E
:101510001200000120EE41F09851D9269951DA22AB
:10152000DECF4AF0DDCF4BF04AC084F04BC085F0EF
:101530000001866B876B0001845100018511000159
:10154000861100018711D8A40FD0000120EE4EF0C3
:101550009851D9269951DA22DECF84F0DECF85F07A
:10156000DECF86F0DECF87F0000120EE3CF0985110
:10157000D9269951DA22DECF82F0DDCF83F0000147
:10158000825100018311D8A402D00D0E1200000177
:1015900020EE08F09851D9269951DA22DECF4AF090
:1015A000DDCF4BF0040E4C6ED8904B324A324C2EAD
:1015B000FBD7000182514A244D6E000183514B201C
:1015C0004E6E4F6AD8B04F2A506A00018D514D249B
:1015D00000017C6F00018E514E2000017D6F0001E3
:1015E0008F514F2000017E6F00019051502000016B
:1015F0007F6F00017C510001845D00017D5100017D
:10160000855900017E510001865900017F5100017A
:101610008759D8B002D00D0E12007CC04AF07DC0B0
:101620004BF07EC04CF07FC04DF04A1E4B1E4C1E4E
:101630004D1E4A2A000E4B224C224D22000184519D
:101640004A24016E000185514B20026E0001865133
:101650004C20036E000187514D20046E000120EEE6
:1016600002F09851D9269951DA22DF504E6E4E5031
:10167000056E066A076A086A19EC31F001C088F045
:1016800002C089F003C08AF004C08BF000018851C9
:101690000001891100018A1100018B11D8A402D028
:1016A0000D0E1200010E0001976F00018B51000119
:1016B0008A1108E1F60E0001885D0F0E00018959BC
:1016C000D8A004D0020E0001976F00D000018B510A
:1016D00000018A1108E1F60E0001885DFF0E00018D
:1016E0008959D8A004D0030E0001976F00D0020ED4
:1016F000000188254A6E000E000189214B6E000E04
:1017000000018A214C6E000E00018B214D6E0001FC
:1017100020EE12F09851D9269951DA224AC0DEFF04
:101720004BC0DEFF4CC0DEFF4DC0DEFF000120EEEF
:101730001AF09851D9269951DA2291C0DEFF92C051
:10174000DEFF93C0DEFF94C0DEFF00018251000186
:1017500091254A6E00018351000192214B6E000ECB
:10176000000193214C6E000E000194214D6E00018A
:1017700020EE1EF09851D9269951DA224AC0DEFF98
:101780004BC0DEFF4CC0DEFF4DC0DEFF00017C51D0
:10179000000191254A6E00017D51000192214B6E9E
:1017A00000017E51000193214C6E00017F51000128
:1017B00094214D6E000120EE26F09851D9269951C2
:1017C000DA224AC0DEFF4BC0DEFF4CC0DEFF4DC058
:1017D000DEFF030E00019719D8A443D0000120EECC
:1017E00008F09851D9269951DA22DE50DE10D8B48B
:1017F00002D00D0E1200000120EE5AF09851D926A9
:101800009951DA22000110EE22F09851E126995107
:10181000E222DECFE6FFDECFE6FFDECFE6FFDECF61
:10182000E6FF000120EE12F09851D9269951DA22F4
:10183000DECF4AF0DECF4BF0DECF4CF0DECF4DF006
:10184000020ED8904A364B364C364D36E82EF9D734
:101850004AC076F04BC077F04CC078F04DC079F0BC
:10186000A5D0000120EE08F09851D9269951DA222E
:10187000DE50DE10D8A402D00D0E1200000120EEC2
:101880001EF09851D9269951DA22DECF4AF0DECFE8
:101890004BF0DECF4CF0DECF4DF000018D514A24ED
:1018A0004E6E00018E514B204F6E00018F514C2027
:1018B000506E000190514D20516E000120EE22F03B
:1018C0009851D9269951DA224EC0DEFF4FC0DEFF73
:1018D00050C0DEFF51C0DEFF020E00019719D8B4E0
:1018E00048D0000120EE12F09851D9269951DA2201
:1018F000DECF4AF0DECF4BF0DECF4CF0DECF4DF046
:10190000010E4A144E6E000E4B144F6E000E4C1416
:10191000506E000E4D14516E000120EE12F09851E1
:10192000D9269951DA22DECF01F0DECF02F0DECFE8
:1019300003F0DECF04F0030E056E000E066E000EFF
:10194000076E000E086E13EC32F0D89004320332AA
:10195000023201324E5001240001766F4F500220B6
:101960000001776F505003200001786F5150042020
:101970001AD0000120EE12F09851D9269951DA229E
:10198000DECF4AF0DECF4BF0DECF4CF0DECF4DF0B5
:10199000D8904A340001766F4B340001776F4C3495
:1019A0000001786F4D340001796F00D0FF0E000107
:1019B00076254A6E010E000177214B6E000E000164
:1019C00078214C6E000E000179214D6E0A0E05D073
:1019D000D8904D324C324B324A32E82EF9D70001C2
:1019E00020EE16F09851D9269951DA224A50DE5C41
:1019F0004B50DE584C50DE584D50DE58D8B002D017
:101A00000D0E1200000120EE0EF09851D9269951CA
:101A1000DA22FF0EDE6EFF0EDE6EFF0EDE6EFF0EB2
:101A2000DD6EDD52DD52000110EE0AF09851E12624
:101A30009951E222DECFE6FFDECFE6FFDECFE6FF02
:101A4000DECFE6FF000120EE05F09851D92699512E
:101A5000DA22800EDF6E030E00019719D8A490D011
:101A6000000120EE5EF09851D9269951DA22DE0469
:101A7000DE10D8A485D098C030F099C031F0010EA6
:101A800000019125326E000E00019221336E000E8E
:101A900000019321346E000E00019421356EE9ECB3
:101AA0002FF00009D8A46CD0000120EE05F0985169
:101AB000D9269951DA22000EDF6E000122EE2CF0B9
:101AC0009851D9269951DA22550EDE1859E1AA0EFD
:101AD000DE18D8A455D0000120EE2EF09851D9265A
:101AE0009951DA22520EDE184BE1520EDE1848E10F
:101AF000610EDE1845E1410EDE18D8A441D0000188
:101B000022EE12F09851D9269951DA22720EDE187F
:101B100037E1720EDE1834E1410EDE1831E1610E5C
:101B2000DE18D8A42DD0000122EE16F09851D92647
:101B30009951DA22000110EE0EF09851E1269951E8
:101B4000E222DECFE6FFDECFE6FFDECFE6FFDECF2E
:101B5000E6FF000122EE1AF09851D9269951DA22B7
:101B6000000110EE0AF09851E1269951E222DECFF1
:101B7000E6FFDECFE6FFDECFE6FFDECFE6FF00D0FA
:101B800098C0D9FF99C0DAFF97C0DFFF0001D24BA0
:101B9000D32B000120EE06F09851D9269951DA2274
:101BA000D2C0DEFFD3C0DDFF000E120012006FC0F6
:101BB00086F070C087F073C0D9FF74C0DAFF000EE2
:101BC000DE6E000EDD6E6DC002F06EC003F03FEC05
:101BD00030F00001856F000185510001D8A412008A
:101BE00001D01200000120EE05F06D51D9266E5192
:101BF000DA22DF50D8A4120001D01200000120EE3A
:101C000004F06D51D9266E51DA220001DFA21200D4
:101C100001D01200000120EE06F06D51D9266E5160
:101C2000DA22000110EE06F06D51E1266E51E2223B
:101C3000E6CF79F0E6CF7AF0E6CF7BF0E6CF7CF026
:101C4000000171510001792500017D6F0001725181
:101C500000017A2100017E6F000E00017B2100014E
:101C60007F6F000E00017C210001806FDE500001BB
:101C70007D5DDE5000017E59DE5000017F59DE504F
:101C800000018059D8B0EDD3000E0001726F000E34
:101C9000716FE7D3000120EE06F06D51D9266E5129
:101CA000DA22FF0EDE140001756F010EDE14000152
:101CB000766F000EDE140001776F000EDE14000157
:101CC000786F000175510001761100017711000154
:101CD0007811D8A4F9D2000120EE06F06D51D92672
:101CE0006E51DA22DECF75F0DECF76F0DECF77F000
:101CF000DECF78F00A0E06D00001D8907833773323
:101D000076337533E82EF8D76DC0D9FF6EC0DAFF91
:101D100010EE02F0DE50E126DD50E222E750000135
:101D2000796F00017905000175150001886F0001C8
:101D300088510001D8A4BFD0000120EE06F06D51FB
:101D4000D9266E51DA22DE50DE10DE10DE10D8A465
:101D50002DD0000120EE0EF06D51D9266E51DA2201
:101D6000DECF8FF0DECF90F0DECF91F0DECF92F0BD
:101D700000018F5100019011000191110001921199
:101D8000D8A436D06DC0D9FF6EC0DAFFDECF56F0D2
:101D9000DDCF57F0000E586E000E596E000E5A6ED1
:101DA000000E5B6E45EC1FF01AD022D06DC0D9FF3B
:101DB0006EC0DAFFDECF56F0DDCF57F0000120EE27
:101DC00012F06D51D9266E51DA22DECF58F0DECFF7
:101DD00059F0DECF5AF0DECF5BF045EC1FF056C075
:101DE0008FF057C090F058C091F059C092F000D0D9
:101DF00000018F5100019011000191110001921119
:101E0000D8B435D301D033D300018F050001901130
:101E10000001911100019211D8A40AD0000120EE16
:101E200005F06D51D9266E51DA22020EDF6E1200D6
:101E300000018F2914E10001902911E1000191298D
:101E40000EE100019229D8A40AD0000120EE05F08D
:101E50006D51D9266E51DA22010EDF6E120000019B
:101E600020EE12F06D51D9266E51DA228FC0DEFFBE
:101E700090C0DEFF91C0DEFF92C0DEFF000120EEC9
:101E80000EF06D51D9266E51DA22DE50DE10DE10D2
:101E9000DE10D8A410D0000120EE0EF06D51D9262E
:101EA0006E51DA228FC0DEFF90C0DEFF91C0DEFFF0
:101EB00092C0DEFF00D0000120EE16F06D51D92651
:101EC0006E51DA226DC0E1FF6EC0E2FF00EE2AF033
:101ED000E650E926E550EA22DE50EE1821E1DE5018
:101EE000EE181EE1DE50EE181BE1DE50EE18D8A40D
:101EF00017D06DC0D9FF6EC0DAFFDECF1BF0DDCF8B
:101F00001CF058EC29F00009D8B40AD0000120EEEA
:101F100005F06D51D9266E51DA22010EDF6E1200E6
:101F20006DC0D9FF6EC0DAFFDECF0DF0DDCF0EF051
:101F3000000120EE12F06D51D9266E51DA22DECF6B
:101F40000FF0DECF10F0DECF11F0DECF12F030EC6C
:101F50002FF00DC08BF00EC08CF00FC08DF010C0B4
:101F60008EF000018B5100018C1100018D110001D8
:101F70008E11D8A40AD0000120EE05F06D51D926AB
:101F80006E51DA22020EDF6E12000001885100014C
:101F90008B27000E8C238D238E2371C075F072C0A9
:101FA00076F0090E0001776F0001D8907633753313
:101FB0000001772FF9D775C089F076C08AF000014B
:101FC000895100018A11D8B42DD100018851000136
:101FD00089250001756F000E00018A210001766FCE
:101FE0006DC0D9FF6EC0DAFF10EE02F0DE50E126C0
:101FF000DD50E222E7500001776F786B00017551E8
:102000000001775D0001765100017859D8B023D0E6
:10201000000188510001756F766B0001751F761FF6
:10202000754B762B6DC0D9FF6EC0DAFF10EE02F053
:10203000DE50E126DD50E222E7500001776F00011B
:102040007751000175250001896F000E000176218E
:1020500000018A6F00D086C011F087C012F08BC0DB
:1020600013F08CC014F08DC015F08EC016F089C02E
:1020700017F08AC018F06DC0D9FF6EC0DAFF10EEFD
:1020800001F0DE50E126DD50E222E750BDEC2AF0FF
:102090000009D8B40AD0000120EE05F06D51D92610
:1020A0006E51DA22010EDF6E12000001895100012B
:1020B000756F00018A510001766F0001776B000196
:1020C000786B6DC0D9FF6EC0DAFF10EE2AF0DE50DB
:1020D000E126DD50E222E6CF79F0E6CF7AF0E6CFD6
:1020E0007BF0E6CF7CF08BC07DF08CC07EF08DC0A5
:1020F0007FF08EC080F000017D1F7E1F7F1F801F3C
:102100007D2B000E7E237F23802300017951000167
:102110007D250001816F00017A5100017E210001BF
:10212000826F00017B5100017F210001836F00015C
:102130007C51000180210001846F00017551000174
:10214000815D000176510001825900017751000143
:1021500083590001785100018459D8B053D06DC023
:10216000D9FF6EC0DAFFDECF75F0DDCF76F02E0E30
:1021700000017525016E000E00017621026E6DC012
:10218000D9FF6EC0DAFF10EE2AF0DE50E126DD50F6
:10219000E222E6CF77F0E5CF78F08BC079F08CC003
:1021A0007AF00001791F7A1F794B7A2B0001775161
:1021B000000179270001785100017A23090ED89097
:1021C000000179377A37E82EFAD7000179510001FA
:1021D0008625036E00017A5100018721046E020EEC
:1021E000066E000E056ECEEC2EF06DC0D9FF6EC0EF
:1021F000DAFF10EE04F0DE50E126DD50E222000EA0
:10220000E76E00D089C075F08AC076F0090ED890CC
:10221000000175377637E82EFAD775C093F076C08F
:1022200094F0F6D0000120EE0AF06D51D9266E51DF
:10223000DA22000110EE06F06D51E1266E51E22225
:10224000DE50E65CDE50E658DE50E658DE50E658DA
:10225000D8A02AD06DC0D9FF6EC0DAFFDECF1BF048
:10226000DDCF1CF058EC29F00009D8B40AD00001E9
:1022700020EE05F06D51D9266E51DA22010EDF6E87
:1022800012006DC0D9FF6EC0DAFF10EE2AF0DE50EA
:10229000E126DD50E2228BC0E6FF8CC0E6FF8DC058
:1022A000E6FF8EC0E6FF00D0000120EE16F06D5173
:1022B000D9266E51DA228BC0DEFF8CC0DEFF8DC0C6
:1022C000DEFF8EC0DEFF00D0FF0E0001756F010E35
:1022D0000001766F000120EE06F06D51D9266E5197
:1022E000DA22DECF77F0DDCF78F000017551000102
:1022F000771700017651000178170001771F781FCA
:10230000774B782B000E000177250001936F020EAA
:10231000000178210001946F000193510001715D6B
:102320000001945100017259D8B005D071C093F0EA
:1023300072C094F000D06DC0D9FF6EC0DAFFDECF5E
:1023400030F0DDCF31F0000120EE16F06D51D926CE
:102350006E51DA22DECF32F0DECF33F0DECF34F052
:10236000DECF35F0E9EC2FF00009D8B40AD0000137
:1023700020EE05F06D51D9266E51DA22010EDF6E86
:102380001200FF0E0001756F010E0001766F000153
:1023900020EE06F06D51D9266E51DA22DECF77F0AD
:1023A000DDCF78F0000175510001771700017651FB
:1023B000000178172E0E00017727000E78236DC0DC
:1023C000D9FF6EC0DAFFDECF79F0DDCF7AF0000101
:1023D000775100017925016E0001785100017A21C1
:1023E000026E86C003F087C004F093C005F094C06D
:1023F00006F0CEEC2EF06DC0D9FF6EC0DAFF10EE05
:1024000004F0DE50E126DD50E222010EE76E00D03E
:102410000001935100018627000194510001872398
:10242000000120EE06F06D51D9266E51DA2200012E
:102430009351DE269451DE22000EDE22DE2273C08E
:10244000D9FF74C0DAFF00019351DE269451DD22DA
:10245000000193510001715F000194510001725B12
:1024600000D00001715100017211D8A413D40001F1
:1024700020EE06F06D51D9266E51DA22000110EEE1
:102480000AF06D51E1266E51E222DE50E65CDE502C
:10249000E658DE50E658DE50E658D8B017D00001B6
:1024A00020EE06F06D51D9266E51DA22000110EEB1
:1024B0000AF06D51E1266E51E222DECFE6FFDECF5B
:1024C000E6FFDECFE6FFDECFE6FF00D0000120EE24
:1024D00004F06D51D9266E51DA22000EDB8A12000B
:1024E00012006DC002F06EC003F03FEC30F000014E
:1024F000836F000183510001D8B403D000018351E0
:102500001200000120EE05F06D51D9266E51DA223D
:10251000DF50D8B409D0000120EE05F06D51D92666
:102520006E51DA22DF501200000120EE0AF06D51E8
:10253000D9266E51DA2200016F51DE5C0001705124
:10254000DE5800017151DE5800017251DE58D8B0DA
:1025500019D0000120EE04F06D51D9266E51DA2217
:102560000001DFB20FD0000120EE0AF06D51D92634
:102570006E51DA22DECF6FF0DECF70F0DECF71F079
:10258000DECF72F0000120EE06F06D51D9266E51BB
:10259000DA22DECF7FF0DECF80F0DECF81F0DECF3B
:1025A00082F0000E0001846F000E856F000E866FB2
:1025B000000E876F000120EE06F06D51D9266E5196
:1025C000DA2284C0DEFF85C0DEFF86C0DEFF87C062
:1025D000DEFF00016F510001701100017111000157
:1025E0007211D8B4D6D26DC0D9FF6EC0DAFF10EE2A
:1025F00002F0DE50E126DD50E222E7500001736F69
:1026000073C074F00001756B766B776B090ED89010
:1026100000017437753776377737E82EF8D774C0EE
:1026200088F075C089F076C08AF077C08BF0000121
:102630007F51000180110001811100018211D8B485
:10264000C1D0FF0E00016F25016EFF0E0001702149
:10265000026EFF0E00017121036EFF0E0001722158
:10266000046E88C005F089C006F08AC007F08BC0F0
:1026700008F019EC31F001C073F002C074F003C02F
:1026800075F004C076F0FF0E00017F25016EFF0E8D
:1026900000018021026EFF0E00018121036EFF0EFA
:1026A00000018221046E88C005F089C006F08AC04E
:1026B00007F08BC008F019EC31F001500001735D98
:1026C0000250000174590350000175590450000173
:1026D0007659D8A077D0FF0E000188250001736FCE
:1026E000FF0E000189210001746FFF0E00018A2195
:1026F0000001756FFF0E00018B210001766F000154
:10270000731F741F751F761FFF0E00017F250001C8
:10271000776FFF0E000180210001786FFF0E00012E
:1027200081210001796FFF0E0001822100017A6F83
:10273000000173510001771500017B6F0001745196
:102740000001781500017C6F0001755100017915B9
:1027500000017D6F0001765100017A1500017E6F46
:10276000000120EE06F06D51D9266E51DA227BC0B1
:10277000DEFF7CC0DEFF7DC0DEFF7EC0DEFF00012D
:1027800020EE06F06D51D9266E51DA22DE5000019E
:102790006F5FDE500001705BDE500001715BDD5049
:1027A0000001725B000120EE12F06D51D9266E51CE
:1027B000DA22DECF8CF0DECF8DF0DECF8EF0DECFF2
:1027C0008FF07FD0000120EE0EF06D51D9266E51B2
:1027D000DA22DECF8CF0DECF8DF0DECF8EF0DECFD2
:1027E0008FF000018C5100018D1100018E1100014C
:1027F0008F11D8A456D06DC0D9FF6EC0DAFFDECFDE
:1028000056F0DDCF57F0000E586E000E596E000ED8
:102810005A6E000E5B6E45EC1FF056C08CF057C030
:102820008DF058C08EF059C08FF000018C0500016A
:102830008D1100018E1100018F11D8A40BD0000161
:1028400020EE05F06D51D9266E51DA22020EDF6EB0
:10285000020E120000018C2915E100018D2912E100
:1028600000018E290FE100018F29D8A40BD00001AF
:1028700020EE05F06D51D9266E51DA22010EDF6E81
:10288000010E1200000120EE0EF06D51D9266E519E
:10289000DA228CC0DEFF8DC0DEFF8EC0DEFF8FC06F
:1028A000DEFF000120EE12F06D51D9266E51DA22C2
:1028B0008CC0DEFF8DC0DEFF8EC0DEFF8FC0DEFF6E
:1028C00000D000018C5100018D1100018E1100011A
:1028D0008F11D8A4CCD05DD1CAD0000120EE04F075
:1028E0006D51D9266E51DA220001DFA22ED06DC0C3
:1028F000D9FF6EC0DAFFDECF56F0DDCF57F08CC0C7
:1029000058F08DC059F08EC05AF08FC05BF045EC86
:102910001FF056C08CF057C08DF058C08EF059C0D3
:102920008FF000018C5100018D1100018E1100010A
:102930008F11D8A425D088C06FF089C070F08AC0EC
:1029400071F08BC072F0A5D01BD06DC0D9FF6EC0E6
:10295000DAFFDECF3BF0DDCF3CF08CC03DF08DC028
:102960003EF08EC03FF08FC040F020EC21F03BC025
:102970008CF03CC08DF03DC08EF03EC08FF000D09A
:1029800000018C2915E100018D2912E100018E2939
:102990000FE100018F29D8A40BD0000120EE05F033
:1029A0006D51D9266E51DA22010EDF6E010E120032
:1029B00000018F5100018E1100018D1105E1020E01
:1029C00000018C5DD8A018D06DC0D9FF6EC0DAFFB1
:1029D00010EE12F0DE50E126DD50E222E65000015A
:1029E0008C5DE65000018D59E65000018E59E6508D
:1029F00000018F59D8A00BD0000120EE05F06D51D9
:102A0000D9266E51DA22020EDF6E020E120000018C
:102A100020EE12F06D51D9266E51DA228CC0DEFF05
:102A20008DC0DEFF8EC0DEFF8FC0DEFF000120EE16
:102A300006F06D51D9266E51DA2200018851DE264A
:102A40008951DE228A51DE228B51DE22000188511B
:102A500000016F5F000189510001705B00018A5124
:102A60000001715B00018B510001725B00D000011D
:102A70006F510001885D000170510001895900010A
:102A8000715100018A590001725100018B59D8A07F
:102A900024D7000120EE06F06D51D9266E51DA22BE
:102AA00000016F51DE267051DE227151DE2272511B
:102AB000DE22FF0E00016F150001736F010E000191
:102AC00070150001746F000E000171150001756F23
:102AD000000E000172150001766F000173510001B4
:102AE00074110001751100017611D8B452D06DC077
:102AF000D9FF6EC0DAFFDECF0DF0DDCF0EF08CC057
:102B00000FF08DC010F08EC011F08FC012F030ECBD
:102B10002FF00DC084F00EC085F00FC086F010C0FD
:102B200087F0000184510001851100018611000128
:102B30008711D8A40BD0000120EE05F06D51D926E5
:102B40006E51DA22020EDF6E020E12006FC073F0B9
:102B500070C074F071C075F072C076F00A0E06D0C5
:102B60000001D8907633753374337333E82EF8D779
:102B70000001735100018427000174510001852375
:102B80000001755100018623000176510001872361
:102B900000D0000120EE06F06D51D9266E51DA22E8
:102BA000FF0EDE140001736F010EDE140001746F5E
:102BB000000EDE140001756F000EDE140001766F4A
:102BC00000017351000174110001751100017611AB
:102BD000D8B428D0000120EE16F06D51D9266E51E0
:102BE000DA2200018451DE180DE100018551DE1862
:102BF00009E100018651DE1805E100018751DE1868
:102C0000D8B410D0000120EE16F06D51D9266E51C7
:102C1000DA2284C0DEFF85C0DEFF86C0DEFF87C00B
:102C2000DEFF00D0000120EE06F06D51D9266E5176
:102C3000DA22000110EE0AF06D51E1266E51E22217
:102C4000DE50E65CDE50E658DE50E658DE50E658D0
:102C5000D8B020D0000120EE06F06D51D9266E517B
:102C6000DA22000110EE0AF06D51E1266E51E222E7
:102C7000DECFE6FFDECFE6FFDECFE6FFDECFE6FF0C
:102C8000000120EE04F06D51D9266E51DA22000EBB
:102C9000DB8A00D00001835112001200000120EEF7
:102CA00004F06D51D9266E51DA22DECF71F0DDCFFE
:102CB00072F0010E0001712500017A6F000E000113
:102CC000722100017B6F00017A5100017B11D8B4A1
:102CD0000DD0000120EE0EF06D51D9266E51DA2292
:102CE000DE50DE10DE10DE10D8A402D0040E12007A
:102CF0000F0E00017A150001716F000E00017B15A7
:102D00000001726F0001715100017211D8A4E9D164
:102D1000000120EE0EF06D51D9266E51DA22DE2A26
:102D2000000EDE22DE22DE22000120EE0AF06D51CE
:102D3000D9266E51DA22DE50DE10DE10DE10D8A465
:102D400015D06DC0D9FF6EC0DAFF10EE08F0DE506E
:102D5000E126DD50E222E65000017A5DE6500001F6
:102D60007B59D8A0BED1040E1200BBD17AC071F03D
:102D70007BC072F0040E0001736F0001D8907233B3
:102D800071330001732FF9D7FF0E0001746FFF0E2E
:102D90000001756F6DC0D9FF6EC0DAFF10EE02F052
:102DA000DE50E126DD50E222E7500001766F776BBE
:102DB000000174510001762700017551000177234D
:102DC000000171510001761700017251000177175F
:102DD0000001765100017711D8A483D16DC0D9FFCD
:102DE0006EC0DAFFDECF3BF0DDCF3CF0000120EE1D
:102DF0000AF06D51D9266E51DA22DECF3DF0DECFDA
:102E00003EF0DECF3FF0DECF40F020EC21F03BC0C3
:102E10007CF03CC07DF03DC07EF03EC07FF0000104
:102E20007F5100017E1100017D1107E1020E0001BA
:102E30007C5DD8B002D0020E120000017C290CE1AA
:102E400000017D2909E100017E2906E100017F29B9
:102E5000D8A402D0010E12006DC0D9FF6EC0DAFFF7
:102E600010EE12F0DE50E126DD50E222E6500001C5
:102E70007C5DE65000017D59E65000017E59E65028
:102E800000017F59D8A0FCD000016F5100017011E2
:102E9000D8A402D0040E12006DC0D9FF6EC0DAFFB4
:102EA000DECF56F0DDCF57F0000120EE0AF06D5175
:102EB000D9266E51DA22DECF58F0DECF59F0DECFC0
:102EC0005AF0DECF5BF045EC1FF056C07CF057C0E7
:102ED0007DF058C07EF059C07FF000017C510001A8
:102EE0007D1100017E1100017F11D8A402D0070ED0
:102EF000120000017C0500017D1100017E1100011E
:102F00007F11D8A402D0020E120000017C290CE12E
:102F100000017D2909E100017E2906E100017F29E8
:102F2000D8A402D0010E12006DC0D9FF6EC0DAFF26
:102F3000DECF1BF0DDCF1CF058EC29F00009D8B42F
:102F400002D0010E12006DC0D9FF6EC0DAFFDECFD5
:102F500071F0DDCF72F02E0E00017125016E000EB2
:102F600000017221026E000E046E000E036E020E4E
:102F7000066E000E056E0DEC33F06DC0D9FF6EC00D
:102F8000DAFFDECF0DF0DDCF0EF07CC00FF07DC09C
:102F900010F07EC011F07FC012F030EC2FF06DC049
:102FA000D9FF6EC0DAFF10EE2AF0DE50E126DD50C8
:102FB000E2220DC0E6FF0EC0E6FF0FC0E6FF10C024
:102FC000E6FF000E0001796F000E786F2ED06DC005
:102FD000D9FF6EC0DAFF10EE04F0DE50E126DD50BE
:102FE000E222010EE76E6DC0D9FF6EC0DAFFDECFC0
:102FF0001BF0DDCF1CF058EC29F00009D8B402D04A
:10300000010E12006DC0D9FF6EC0DAFF10EE2AF07B
:10301000DE50E126DD50E222E62A000EE622E6221C
:10302000E6220001784B792B00D06DC0D9FF6EC02D
:10303000DAFF10EE02F0DE50E126DD50E222E7502A
:103040000001716F726B000171510001785D000128
:10305000725100017959D8A0BAD76DC0D9FF6EC09E
:10306000DAFF10EE2AF0DE50E126DD50E222000108
:103070007851E65E7951E65A000EE65AE65A00D0DB
:10308000000120EE0AF06D51D9266E51DA227CC083
:10309000DEFF7DC0DEFF7EC0DEFF7FC0DEFF6DC0D5
:1030A000D9FF6EC0DAFFDECF0DF0DDCF0EF07CC0B1
:1030B0000FF07DC010F07EC011F07FC012F030EC38
:1030C0002FF0000120EE0EF06D51D9266E51DA225C
:1030D0000DC0DEFF0EC0DEFF0FC0DEFF10C0DEFF42
:1030E00000D0000120EE04F06D51D9266E51DA2295
:1030F0007AC0DEFF7BC0DDFF0F0E00017A150001F4
:10310000716F000E00017B150001726F050ED890E3
:10311000000171377237E82EFAD72E0E00017127A1
:10312000000E72236DC0D9FF6EC0DAFFDECF73F0E0
:10313000DDCF74F00001715100017327000172515D
:1031400000017423000120EE12F06D51D9266E515A
:10315000DA2273C0DEFF74C0DDFF000E1200120021
:10316000316E12C038F013C039F03150D8B402D0EB
:10317000040E1200010E366E0001F7A133D2030EC9
:10318000120030D24DEC33F024D246D2000E0B6E3A
:10319000000E0C6E000E0D6E000E0E6E090E8FEC02
:1031A00032F00009D8A438D2210E026E000E036E50
:1031B000000E056E100E046EA0EC31F00009D8B4BC
:1031C0002BD22144E846030BE806D8A44ED028C0F1
:1031D00014F03F0E141614C015F0166A176A186A18
:1031E00016C018F015C017F0166A156A29501A6E25
:1031F000196A2A501B6E1C6A19501B261A501C2271
:103200001B5015241D6E1C5016201E6E000E17201C
:103210001F6E000E1820206E010E1D24326E000E4F
:103220001E20336E000E1F20346E000E2020356EDF
:1032300032C014F033C015F034C016F035C017F0AA
:103240000A0ED8901436153616361736E82EF9D7EA
:1032500012C0D9FF13C0DAFF14C0DEFF15C0DEFFB5
:1032600016C0DEFF17C0DEFFB7D12AC014F0030E70
:103270001416D8901434156E166A2BAE01D0162A87
:10328000010E161626500F0B16241524020F376E4A
:103290002750030B146E156A0A0ED8901436153693
:1032A000E82EFBD72850166E176AD89016361736B8
:1032B000D890163617362944E846030B186E196A5B
:1032C0001650182617501922145018261550192276
:1032D000010E1826000E192218C032F019C033F062
:1032E000346A356A37C014F0F70E142632C015F070
:1032F00033C016F034C017F035C018F0142A05D0CA
:10330000D8901536163617361836142EF9D712C03F
:10331000D9FF13C0DAFF15C0DEFF16C0DEFF17C0ED
:10332000DEFF18C0DEFF58D157D176D10001D6A5F7
:103330004AD0000E0B6E000E0C6E000E0D6E000ECD
:103340000E6E8D0E8FEC32F00009D8A465D1FF0E01
:1033500068EC33F0210E026E000E036E000E056E57
:10336000100E046EA0EC31F00009D8B455D1300E27
:10337000376E05D0FF0E68EC33F0370600D03750BB
:10338000D8A4F8D72BC014F0143A0F0E1416100E50
:10339000156E166A176A186A142A05D0D890153661
:1033A000163617361836142EF9D712C0D9FF13C0A7
:1033B000DAFF15C0DEFF16C0DEFF17C0DEFF18C043
:1033C000DEFF0AD129D1000E0B6E000E0C6E000E2E
:1033D0000D6E000E0E6E090E8FEC32F00009D8A4AF
:1033E0001BD1210E026E000E036E000E056E100E34
:1033F000046EA0EC31F00009D8B40ED10001D6A3C0
:103400002AD02EC014F0060E156ED8901432152E48
:10341000FCD7FF0E14262B503F0B166E176AD89060
:1034200016361736186A2CAE01D0182A010E181657
:1034300018501626000E1722010E1626000E17220F
:10344000142A03D0D89016361736142EFBD71650F0
:10345000196E175034D02BC014F0D8901432D89075
:1034600014321F0E1416010E1424016E026A000E8F
:1034700002222C50030B156E166AD890153616369C
:10348000D89015361636D890153616362CC017F04B
:10349000050E186ED8901732182EFCD7070E171687
:1034A00017501526000E1622010E1524036E000E6D
:1034B0001620046E39EC33F00150196E02501A6E6A
:1034C0001B6A1C6A12C0D9FF13C0DAFF19C0DEFFE5
:1034D0001AC0DEFF1BC0DEFF1CC0DEFF7DD07CD02B
:1034E0009BD038C0D9FF39C0DAFFD6C0DFFF74D017
:1034F000000E0B6E000E0C6E000E0D6E000E0E6EAA
:10350000090E8FEC32F00009D8A486D038C002F042
:1035100039C003F0000E056E100E046EA0EC31F001
:1035200058D07AD0000E0B6E000E0C6E000E0D6E91
:10353000000E0E6E0A0E8FEC32F00009D8A46CD08B
:1035400038C002F039C003F0000E056E100E046E94
:10355000A0EC31F03ED060D0000E0B6E000E0C6E71
:10356000000E0D6E000E0E6E3A0E8FEC32F000095A
:10357000D8A452D0040E376E0CD0FF0E68EC33F096
:1035800038C0D9FF39C0DAFFDF6E384A392A37062A
:1035900000D03750D8A4F1D71FD03ED0000E0B6E0C
:1035A000000E0C6E000E0D6E000E0E6E8D0E8FEC6A
:1035B00032F00009D8A430D0FF0E68EC33F038C0E8
:1035C00002F039C003F0000E056E400E046EA0EC50
:1035D00031F00009D8B420D0000E02D01DD0040E66
:1035E000366E1AD01150000AD8B4CCD5010AD8B41E
:1035F000CDD5020AD8B49AD6090AD8B472D7010A2E
:10360000D8B476D7070AD8B48DD7010AD8B4A4D7CE
:10361000030AD8B4C3D7E3D78DEC33F03650120089
:10362000120000019A5100019B11D8A402D0090E8A
:1036300012009AC0D9FF9BC0DAFF000EDE6E000EAA
:10364000DD6ED4C0BAF0D5C0BBF01F0E00019E17CE
:10365000BA0E456E000E466E9C0E476E000E486E0A
:1036600000019E51FE0B496E15EC08F00001B76F8A
:103670000001B7510001D8A4F8D1A30E0001CE6F0C
:10368000000E0001CF6FBA0E0001866F000E000120
:10369000876F9CC088F09DC089F0BBEC27F00001CB
:1036A000B76FCCC0B8F0CDC0B9F00001B751000180
:1036B000D8A40AD00001B8510001B911D8A404D08F
:1036C000060E0001B76F00D09EC09FF01C0E0001D7
:1036D0009F17D8B401D10001B7510001D8B417D059
:1036E000040E0001B719D8A40BD0BA0E00018A6FDE
:1036F000000E00018B6F85EC2DF00001B76F00D03C
:1037000000019E87CCC0B8F0CDC0B9F018D0000140
:1037100020EE0BF0B851D926B951DA22DF50000162
:103720009F6F110E00019F17D8B402D0070E04D06E
:1037300000019EA504D0080E0001B76F00D0000163
:10374000B7510001D8A4EAD000019EA7E7D0000E2F
:103750000001B36F000EB46F210EB56F460EB66F49
:10376000000120EE0EF0B851D926B951DA22B3C0CB
:10377000DEFFB4C0DEFFB5C0DEFFB6C0DEFF000175
:1037800020EE16F0B851D926B951DA22B3C0DEFFC7
:10379000B4C0DEFFB5C0DEFFB6C0DEFF000120EE24
:1037A0000BF0B851D926B951DA22000EDF6E0001B4
:1037B00020EE1CF0B851D926B951DA22DE6ADE6A51
:1037C000DE6ADD6ABAC001F0BBC002F0B8C003F027
:1037D000B9C004F05FEC31F001C0AFF002C0B0F04E
:1037E00003C0B1F004C0B2F0B8C001F0B9C002F03B
:1037F000000E036E000E046E000E056E000E066EC7
:1038000024EC33F0000120EE04F0BA51D926BB516C
:10381000DA22010EDF6E0001AF510001B01100018C
:10382000B1110001B211D8B479D0000120EE2AF014
:10383000BA51D926BB51DA22DECFB3F0DECFB4F0D5
:10384000DECFB5F0DECFB6F0BAC056F0BBC057F051
:10385000AFC058F0B0C059F0B1C05AF0B2C05BF080
:103860009DEC28F00001B76F0001B7510001D8A40A
:1038700055D0FF0E0001AF2500019F6FFF0E000124
:10388000B0210001A06FFF0E0001B1210001A16F66
:10389000FF0E0001B2210001A26F000120EE0AF02C
:1038A000BA51D926BB51DA229FC0DEFFA0C0DEFF8D
:1038B000A1C0DEFFA2C0DEFFBAC030F0BBC031F055
:1038C000B3C032F0B4C033F0B5C034F0B6C035F098
:1038D000E9EC2FF020D022D00001B7510001D8A48C
:1038E0001DD0000120EE0BF0B851D926B951DA22D3
:1038F0000001DFA802D0040E0ED000019EA30ED05E
:10390000000120EE0BF0B851D926B951DA2200019E
:10391000DFA004D0070E0001B76F00D00001B7513F
:103920000001D8A428D000019EA703D000019E8BDF
:1039300000D0000120EE2AF0BA51D926BB51DA227C
:10394000000110EE1AF09A51E1269B51E222DECFDF
:10395000E6FFDECFE6FFDECFE6FFDECFE6FF0001CB
:1039600020EE1EF09A51D9269B51DA22B8C0DEFF14
:10397000B9C0DDFF00D00001B7510001D8A475D057
:10398000000120EE04F09A51D9269B51DA229EC004
:10399000DFFF000120EE05F09A51D9269B51DA2273
:1039A000000EDF6EBAC001F0BBC002F0B8C003F079
:1039B000B9C004F05FEC31F0000120EE0EF09A5136
:1039C000D9269B51DA2201C0DEFF02C0DEFF03C010
:1039D000DEFF04C0DEFF000120EE1CF0B851D92646
:1039E000B951DA22000110EE0AF09A51E1269B51FA
:1039F000E222DECFE6FFDECFE6FFDECFE6FFDECF60
:103A0000E6FF000120EE06F09A51D9269B51DA22FA
:103A1000DE6ADE6ADE6ADD6A000120EE16F09A5187
:103A2000D9269B51DA22DE6ADE6ADE6ADD6A9AC036
:103A3000D9FF9BC0DAFFBAC0DEFFBBC0DDFF9AC072
:103A4000D9FF9BC0DAFF10EE06F0DE50E126DD5014
:103A5000E222000120EE02F09A51D9269B51DA228F
:103A6000E6CFDEFFE5CFDDFF00D00001B751120049
:103A7000120040503F103E1004E1020E3D5CD8A001
:103A8000EED120EE12F03B50D9263C50DA22DE5027
:103A90003D5CDE503E58DE503F58DE504058D8A0C6
:103AA000E1D1DDD1DFD13DC051F03EC052F0D89020
:103AB0005230466E5130456E455051264650522286
:103AC0003BC030F03CC031F020EE1EF03B50D92618
:103AD0003C50DA22DECF45F0DECF46F0DECF47F0B5
:103AE000DECF48F051C049F052C04AF0090E4B6E8B
:103AF000D8904A3249324B2EFBD749504524326E7A
:103B00004A504620336E000E4720346E000E482087
:103B1000356EE9EC2FF0536E5350D8A4B3D101D0D9
:103B2000B1D1FF0E456E010E466E51C047F052C036
:103B300048F045504716465048162E0E4726000EB0
:103B4000482247503B24546E48503C20556E514A01
:103B5000522A3DB004D041C04DF04E6A1BD04150B6
:103B6000456E466A453A463AF00E461645500F0BEA
:103B70004612F00E451654C0D9FF55C0DAFFDF508B
:103B80000F0B476E486A455047104D6E465048101F
:103B90004E6E00D054C0D9FF55C0DAFF4DC0DFFFD4
:103BA00020EE04F03B50D9263C50DA22010EDF6EA5
:103BB0003BC030F03CC031F020EE1EF03B50D92627
:103BC0003C50DA22DECF45F0DECF46F0DECF47F0C4
:103BD000DECF48F051C049F052C04AF0090E4B6E9A
:103BE000D8904A3249324B2EFBD749504524326E89
:103BF0004A504620336E000E4720346E000E482097
:103C0000356EE9EC2FF0536E5350D8A43BD101D060
:103C100039D1FF0E456E010E466E51C047F052C0BD
:103C200048F045504716465048162E0E4726000EBF
:103C3000482247503B24546E48503C20556E3DB0BE
:103C40001BD041C045F042C046F043C047F044C0DD
:103C500048F046C045F047C046F048C047F0486AC3
:103C60000F0E451654C0D9FF55C0DAFFDF50F00BD8
:103C70004510496E495012D041C045F042C046F04F
:103C800043C047F044C048F0050E05D0D8904832F4
:103C9000473246324532E82EF9D745504F6E506ACA
:103CA00000D054C0D9FF55C0DAFF4FC0DFFFCED0DF
:103CB0003BC030F03CC031F020EE1EF03B50D92626
:103CC0003C50DA22DECF45F0DECF46F0DECF47F0C3
:103CD000DECF48F03DC049F03EC04AF03FC04BF057
:103CE00040C04CF04AC049F04BC04AF04CC04BF0C9
:103CF0004C6A45504924326E46504A20336E475034
:103D00004B20346E48504C20356EE9EC2FF0536E4A
:103D10005350D8A4B7D001D0B5D0FF0E456E010ED8
:103D2000466E3DC047F03EC048F0D8904736483612
:103D300045504716465048162E0E4726000E48227C
:103D400047503B24546E48503C20556E54C0D9FF18
:103D500055C0DAFF41C0DEFF42C0DDFF77D03BC077
:103D600030F03CC031F020EE1EF03B50D9263C50E4
:103D7000DA22DECF45F0DECF46F0DECF47F0DECFF1
:103D800048F03DC049F03EC04AF03FC04BF040C053
:103D90004CF0080E05D0D8904C324B324A324932A2
:103DA000E82EF9D745504924326E46504A20336EEA
:103DB00047504B20346E48504C20356EE9EC2FF0C4
:103DC000536E5350D8A45ED001D05CD0FF0E456E28
:103DD000010E466E3DC047F03EC048F0D8904736D1
:103DE0004836D8904736483645504716465048160C
:103DF0002E0E4726000E482247503B24546E485052
:103E00003C20556E54C0D9FF55C0DAFF000EDE14B9
:103E1000456E000EDE14466E000EDE14476EF00E88
:103E2000DE14486E4550411246504212475043122C
:103E30004850441254C0D9FF55C0DAFF41C0DEFFDC
:103E400042C0DEFF43C0DEFF44C0DEFF20EE04F0D0
:103E50003B50D9263C50DA22010EDF6E13D0020E01
:103E6000536E10D03BC0D9FF3CC0DAFFDF50010ACF
:103E7000D8B419D6030AD8B41BD7010AD8B46FD75F
:103E8000EED700D0535012001200585059105A105B
:103E90005B10D8A436D020EE0AF05650D9265750E1
:103EA000DA22DECF61F0DECF62F0DECF63F0DECF6C
:103EB00064F0000161510001621100016311000111
:103EC0006411D8B414D020EE12F05650D9265750B1
:103ED000DA22DE500001615DDE5000016259DE50E1
:103EE00000016359DE5000016459D8A070D0010E62
:103EF0000001616F000E626F000E636F000E646F51
:103F000066D056C03BF057C03CF058C03DF059C099
:103F10003EF05AC03FF05BC040F020EC21F03BC0C7
:103F200069F03CC06AF03DC06BF03EC06CF000012F
:103F30006C5100016B1100016A110EE1020E0001CB
:103F4000695DD8B009D0010E566E000E576E000E96
:103F5000586E000E596E12000001692913E100012C
:103F60006A2910E100016B290DE100016C29D8A438
:103F700009D069C056F06AC057F06BC058F06CC0E9
:103F800059F0120020EE12F05650D9265750DA227E
:103F9000DE500001695DDE5000016A59DE5000010B
:103FA0006B59DE5000016C59D8B009D069C056F089
:103FB0006AC057F06BC058F06CC059F0120058C07E
:103FC00061F059C062F05AC063F05BC064F061C038
:103FD00065F062C066F063C067F064C068F000D04E
:103FE000010E00016527000E66236723682320EE7B
:103FF00012F05650D9265750DA22DE500001655D86
:10400000DE5000016659DE5000016759DE500001A4
:104010006859D8A025D0020E0001656F000E666FAA
:10402000000E676F000E686F000165510001615D51
:104030000001665100016259000167510001635996
:104040000001685100016459D8B00AD0000E566EC4
:10405000000E576E000E586E000E596E120000D002
:1040600056C03BF057C03CF065C03DF066C03EF026
:1040700067C03FF068C040F020EC21F03BC069F021
:104080003CC06AF03DC06BF03EC06CF0000169516D
:1040900000016A1100016B1100016C11D8B441D00C
:1040A00001D03FD0000169290AE100016A2907E136
:1040B00000016B2904E100016C29D8B40AD0000189
:1040C000690500016A1100016B1100016C11D8A48F
:1040D00009D069C056F06AC057F06BC058F06CC088
:1040E00059F0120000016151000165190FE1000152
:1040F0006251000166190AE100016351000167196C
:1041000005E10001645100016819D8A469D7000EC7
:10411000566E000E576E000E586E000E596E12004D
:104120005FD756C03BF057C03CF065C03DF066C05D
:104130003EF067C03FF068C040F0FF0E416EFF0EDA
:10414000426EFF0E436E0F0E446E39EC1DF00001FF
:10415000606F000160510001D8A41FD05850591061
:104160005A105B10D8B419D056C03BF057C03CF081
:1041700058C03DF059C03EF05AC03FF05BC040F01F
:1041800065C041F066C042F067C043F068C044F0CB
:1041900039EC1DF00001606F00D00001605100019A
:1041A000D8A431D020EE0AF05650D9265750DA2242
:1041B00065C0DEFF66C0DEFF67C0DEFF68C0DEFFF1
:1041C00020EE0EF05650D9265750DA22DE2807E1AD
:1041D000DE2805E1DE2803E1DE28D8B428D020EE71
:1041E0000EF05650D9265750DA22DE06000EDE5A5F
:1041F000DE5ADE5A20EE05F05650D9265750DA2204
:10420000000EDB8014D000016005D8B40AD0010E86
:104210000001656F000E666F000E676F000E686F1D
:1042200006D00001656966696769686900D065C084
:1042300056F066C057F067C058F068C059F01200D9
:1042400040503F103E1004E1020E3D5CD8A09AD1D0
:1042500020EE12F03B50D9263C50DA22DE503D5C75
:10426000DE503E58DE503F58DE504058D8B08AD11C
:104270004B684C684D684E688ED13DC053F03EC0CF
:1042800054F0D8905430426E5330416E4150532612
:10429000425054223BC030F03CC031F020EE1EF0C2
:1042A0003B50D9263C50DA22DECF41F0DECF42F03F
:1042B000DECF43F0DECF44F053C045F054C046F0AB
:1042C000090E476ED89046324532472EFBD74550EF
:1042D0004124326E46504220336E000E4320346E2D
:1042E000000E4420356EE9EC2FF00009D8A462D10D
:1042F00001D060D1FF0E416E010E426E53C043F0FB
:1043000054C044F041504316425044162E0E4326EA
:10431000000E442243503B24D96E44503C20DA6EB8
:10432000DF50456E45504F6E506A534A542A3BC089
:1043300030F03CC031F020EE1EF03B50D9263C500E
:10434000DA22DECF41F0DECF42F0DECF43F0DECF27
:1043500044F053C045F054C046F0090E476ED89063
:1043600046324532472EFBD745504124326E4650E7
:104370004220336E000E4320346E000E4420356E12
:10438000E9EC2FF00009D8A415D101D013D1FF0E0C
:10439000416E010E426E53C043F054C044F0415090
:1043A0004316425044162E0E4326000E442243501C
:1043B0003B24D96E44503C20DA6EDF50456E4550A8
:1043C000476E466A46504F12475050123DB007D0D4
:1043D000FF0E4F14496E0F0E50144A6E10D04FC08E
:1043E00041F050C042F0040E436ED8904232413248
:1043F000432EFBD741C049F042C04AF000D049C02B
:104400004BF04AC04CF059D03BC030F03CC031F0CA
:1044100020EE1EF03B50D9263C50DA22DECF41F090
:10442000DECF42F0DECF43F0DECF44F03DC045F0BA
:104430003EC046F03FC047F040C048F046C045F09F
:1044400047C046F048C047F0486A41504524326EA4
:1044500042504620336E43504720346E445048202B
:10446000356EE9EC2FF00009D8A4A4D001D0A2D079
:10447000FF0E416E010E426E3DC043F03EC044F05F
:10448000D8904336443641504316425044162E0EBF
:104490004326000E442243503B24516E44503C209E
:1044A000526E51C0D9FF52C0DAFFDECF41F0DDCFEE
:1044B00042F041C04BF042C04CF04D6A4E6A7AD097
:1044C0003BC030F03CC031F020EE1EF03B50D9260E
:1044D0003C50DA22DECF41F0DECF42F0DECF43F0B7
:1044E000DECF44F03DC045F03EC046F03FC047F04F
:1044F00040C048F0080E05D0D890483247324632C6
:104500004532E82EF9D741504524326E42504620BC
:10451000336E43504720346E44504820356EE9ECEA
:104520002FF00009D8A446D001D044D0FF0E416E30
:10453000010E426E3DC043F03EC044F0D890433679
:104540004436D890433644364150431642504416C0
:104550002E0E4326000E442243503B24516E4450FD
:104560003C20526E51C0D9FF52C0DAFFFF0EDE145C
:104570004B6EFF0EDE144C6EFF0EDE144D6E0F0EF2
:10458000DE1407D0010E4B6E000E4C6E000E4D6E09
:10459000000E4E6E0FD03BC0D9FF3CC0DAFFDF509B
:1045A000010AD8B46AD6030AD8B42ED7010AD8B4FF
:1045B00087D7E8D74BC03BF04CC03CF04DC03DF036
:1045C0004EC03EF0120020EE04F05550D926565051
:1045D000DA2257C0DEFF58C0DDFF20EE06F055504E
:1045E000D9265650DA22DECF66F0DECF67F0DECF76
:1045F00068F0DECF69F00001660500016711000177
:10460000681100016911D8B418D055C0D9FF56C03F
:10461000DAFF10EE12F0DE50E126DD50E222E65025
:104620000001665DE65000016759E65000016859D7
:10463000E65000016959D8A002D0020E1200000114
:104640006651000167110001681100016911D8A4C9
:1046500023D055C0D9FF56C0DAFFDECF59F0DDCFE9
:104660005AF059C0D9FF5AC0DAFF030EDE18D8A499
:1046700013D055C0D9FF56C0DAFF10EE22F0DE503D
:10468000E126DD50E222E6CF66F0E6CF67F0E6CF26
:1046900068F0E6CF69F000D00001665100016711B3
:1046A0000001681100016911D8A425D055C0D9FFB7
:1046B00056C0DAFF10EE08F0DE50E126DD50E222AF
:1046C000E650575CE6505858D8A002D0020E1200AF
:1046D00055C0D9FF56C0DAFF10EE22F0DE50E126B9
:1046E000DD50E222E6CF62F0E6CF63F0E6CF64F081
:1046F000E6CF65F08BD055C0D9FF56C0DAFF10EE7B
:1047000002F0DE50E126DD50E222E750596E5950AA
:10471000100DF3CF60F0F4CF61F055D055C0D9FF44
:1047200056C0DAFFDECF3BF0DDCF3CF066C03DF097
:1047300067C03EF068C03FF069C040F020EC21F057
:104740003BC066F03CC067F03DC068F03EC069F019
:10475000000166290CE10001672909E100016829CF
:1047600006E100016929D8A402D0010E120000015F
:104770006951000168110001671105E1020E000195
:10478000665DD8A018D055C0D9FF56C0DAFF10EE2C
:1047900012F0DE50E126DD50E222E6500001665DB7
:1047A000E65000016759E65000016859E6500001E3
:1047B0006959D8A002D0020E120000016051575E64
:1047C00000016151585A00016051575C000161516C
:1047D0005858D8B0A3D755C0D9FF56C0DAFFDECF9E
:1047E0000DF0DDCF0EF066C00FF067C010F068C0AE
:1047F00011F069C012F030EC2FF00DC062F00EC065
:1048000063F00FC064F010C065F000D020EE0AF035
:104810005550D9265650DA2266C0DEFF67C0DEFF4B
:1048200068C0DEFF69C0DEFF000162510001631154
:104830000001641100016511D8A402D0020E12001B
:1048400057C059F058C05AF0040E5B6ED8905A32D7
:1048500059325B2EFBD75950000162255C6E5A50CD
:10486000000163215D6E000E000164215E6E000E8A
:10487000000165215F6E20EE0EF05550D92656508E
:10488000DA225CC0DEFF5DC0DEFF5EC0DEFF5FC01F
:10489000DEFF0F0E5714596E000E58145A6E050E97
:1048A000D89059365A36E82EFBD72E0E5926000ED0
:1048B0005A2255C0D9FF56C0DAFFDECF5BF0DDCFFC
:1048C0005CF059505B265A505C2220EE12F0555095
:1048D000D9265650DA225BC0DEFF5CC0DDFF000E39
:1048E000120012000BC0D9FF0CC0DAFFDECF18F0A7
:1048F000DDCF19F003D0184A192A00D018C0F6FFEE
:1049000019C0F7FFF86A0800F5502F0AD8B4F3D79A
:1049100018C0F6FF19C0F7FFF86A0800F5505C0AE6
:10492000D8B4E9D720EE14F00950D9260A50DA227B
:10493000DECF1BF0DDCF1CF01BC001F01CC002F06D
:10494000000E046E200E036E000E066E0B0E056E3A
:104950000DEC33F0000E156E15C01DF01E6A1DC063
:1049600013F01EC014F0000E176E080E166E00D065
:10497000135018240D6E145019200E6E0DC0F6FF42
:104980000EC0F7FFF86A0800F5CF1FF0134A142A8B
:10499000200E1F64B0D02F0E1F18D8B4ACD05C0E00
:1049A0001F18D8B4A8D001D0A6D02E0E1F18D8B486
:1049B00006D016501D5C17501E58D8A018D0080EEF
:1049C00016181710D8A404D02E0E1F18D8B402D071
:1049D000060E1200000E1E6E080E1D6E000E176EE3
:1049E0000B0E166ED8901536D8901536C1D77F0E9F
:1049F0001F6402D0030E1512800E1F6404D09F0E98
:104A00001F6408D000D0DF0E1F6449D0FD0E1F6068
:104A100046D000D0135018240D6E145019200E6E7D
:104A20000DC0F6FF0EC0F7FFF86A0800F5CF1AF0C8
:104A3000134A142A3F0E1A6404D07E0E1A6408D05A
:104A400000D07F0E1A6416D0FD0E1A6013D000D06D
:104A5000FF0E0D6EFF0E0E6E16C00FF017C010F099
:104A60000D500F260E5010220F501D5C10501E5876
:104A7000D8A002D0060E12001D501B24D96E1E5065
:104A80001C20DA6E1FC0DFFF1D4A1E2A1D501B248A
:104A9000D96E1E501C20DA6E1AC0DFFF29D0100E0E
:104AA000016E100E026E1FC003F0046A40EC32F07B
:104AB00001500210D8B402D0060E1200400E1F643E
:104AC00005D05B0E1F6002D015820AD0600E1F64F5
:104AD00007D07B0E1F6004D01580200E1F5E00D013
:104AE0001D501B24D96E1E501C20DA6E1FC0DFFF24
:104AF0001D4A1E2A3DD7135018240D6E145019203C
:104B00000E6E0BC0D9FF0CC0DAFF0DC0DEFF0EC069
:104B1000DDFF200E1F6404D0000E126E000E03D0C5
:104B2000000E126E040E116E00D011C01FF01D5049
:104B30001E10D8A402D0060E12001BC0D9FF1CC044
:104B4000DAFFE50EDE18D8A407D01BC0D9FF1CC0C1
:104B5000DAFF050EDF6E00D0080E16181710D8A465
:104B600004D0D8901536D89015361550030BE806AA
:104B7000D8A402D01F8800D015500C0B040AD8A46A
:104B800002D01F8600D020EE0BF01B50D9261C50FF
:104B9000DA221FC0DFFF000E12001200126E125048
:104BA000D8B402D0010E12000001F7A303D0000117
:104BB000F75112007FEC33F00A0E1D6E05D0FF0E88
:104BC00068EC33F01D0600D01D50D8A4F8D7000EB5
:104BD0001A6E000E0B6E000E0C6E000E0D6E000EA7
:104BE0000E6E000E8FEC32F0E806D8A4D1D0AA0EDB
:104BF0000B6E010E0C6E000E0D6E000E0E6E080E8A
:104C00008FEC32F0E806D8A473D0000E1D6E030EB0
:104C10001D6401D00ED01D50010D130EF324D96E6A
:104C2000000EF420DA6EFF0E68EC33F0DF6E1D2A02
:104C3000EED71504D8A4ACD0AA0E1618D8A4A8D0C4
:104C4000030E1C6EE80E1B6E1BD0000E0B6E000ECA
:104C50000C6E000E0D6E400E0E6EA90E8FEC32F033
:104C60000009D8B411D001D00FD0060E116E300E4D
:104C7000E82EFED7112EFCD700D01B06D8A01C06AC
:104C80001B501C10D8A4E1D71B501C10D8B480D0E6
:104C9000000E0B6E000E0C6E000E0D6E000E0E6EF2
:104CA0003A0E8FEC32F00009D8A472D0000E1D6EBF
:104CB0000ED010D01D50010D130EF324D96E000E2E
:104CC000F420DA6EFF0E68EC33F0DF6E1D2A030E5F
:104CD0001D64F0D713BC04D0000E186E040E03D070
:104CE000000E186E0C0E176E00D017C01AF050D0C0
:104CF000000E0B6E000E0C6E000E0D6E000E0E6E92
:104D0000A90E8FEC32F0116E020E116004D0020E6B
:104D10001A6EA90E03D0010E1A6E010E196E030E43
:104D20001C6EE80E1B6E1BD0000E0B6E000E0C6E80
:104D3000000E0D6E000E0E6E19508FEC32F0000951
:104D4000D8B411D001D00FD0060E116E300EE82E5F
:104D5000FED7112EFCD700D01B06D8A01C061B5076
:104D60001C10D8A4E1D71B501C10D8B40ED0000ED4
:104D70000B6E020E0C6E000E0D6E000E0E6E100EFF
:104D80008FEC32F00009D8B403D0000E1A6E00D0B8
:104D90001AC0D6F08DEC33F01A50D8B405D000010B
:104DA000F79171EC33F000D00001F75112001200BE
:104DB0003AC01BF03BC01CF058EC29F0446E445044
:104DC000D8A4D6D03AC0D9FF3BC0DAFF030EDE1814
:104DD000D8A4B9D020EE05F03A50D9263B50DA22BB
:104DE000DE04D8A4B0D02E0E3A24016E000E3B2073
:104DF000026E000E046E000E036E020E066E000EB2
:104E0000056E0DEC33F022EE2CF03A50D9263B50D3
:104E1000DA22550EDE6EAA0EDD6E20EE2EF03A502E
:104E2000D9263B50DA22520EDE6E520EDE6E610E35
:104E3000DE6E410EDD6E22EE12F03A50D9263B5066
:104E4000DA22720EDE6E720EDE6E410EDE6E610EC4
:104E5000DD6E20EE0EF03A50D9263B50DA2212EEEB
:104E600016F03A50E1263B50E222DECFE6FFDECFDD
:104E7000E6FFDECFE6FFDECFE6FF20EE0AF03A5097
:104E8000D9263B50DA2212EE1AF03A50E1263B5076
:104E9000E222DECFE6FFDECFE6FFDECFE6FFDECFAB
:104EA000E6FF20EE1AF03A50D9263B50DA22DECF48
:104EB0003CF0DECF3DF0DECF3EF0DECF3FF0010E26
:104EC0003C24406E000E3D20416E000E3E20426E9E
:104ED000000E3F20436E20EE2AF03A50D9263B5078
:104EE000DA2240C0DEFF41C0DEFF42C0DEFF43C029
:104EF000DEFF2E0E3A24116E000E3B20126E20EEC5
:104F00002AF03A50D9263B50DA22DECF13F0DECF1A
:104F100014F0DECF15F0DECF16F0000E186E010E85
:104F2000176E20EE01F03A50D9263B50DA22DF50BE
:104F3000BDEC2AF020EE05F03A50D9263B50DA229B
:104F4000000EDF6E00D0000E116E000E126E000E0D
:104F5000136E20EE01F03A50D9263B50DA22DF5092
:104F6000B0EC18F00009D8B403D0010E446E00D0A4
:104F700044501200120088C0F6FF89C0F7FFF86A9B
:104F80000800F5502F0AD8B40AD088C0F6FF89C0AF
:104F9000F7FFF86A0800F5505C0AD8A404D00001B5
:104FA000884B892B00D0000120EE06F08651D926CF
:104FB0008751DA22DE6ADE6ADE6ADD6A88C0F6FFC1
:104FC00089C0F7FFF86A200E0800F56019D086C086
:104FD00055F087C056F0000E586E000E576EE3EC89
:104FE00022F000018D6F000120EE12F08651D926CB
:104FF0008751DA22000EDE6E000EDD6E9AD000D0F0
:1050000086C009F087C00AF0880E0B6E000E0C6E89
:1050100072EC24F000018D6F00018D510001D8A4C5
:1050200088D001D086D086C080F087C081F0F3ECB4
:105030002BF000018D6F000120EE14F08651D9266F
:105040008751DA2210EE0BF0DE50E126DD50E2222D
:10505000E75000018C6F00018D510001D8B42ED0B3
:10506000040E00018D19D8B422D063D020D00001E5
:105070008CAB1DD0000120EE06F08651D926875159
:10508000DA22DE6ADE6ADE6ADD6A000120EE12F0F4
:105090008651D9268751DA22000EDE6E000EDD6EB3
:1050A00000018CA5ADD701D0ABD7000E04D0000114
:1050B0008CB53FD01DD000018D6F3BD000018CB569
:1050C00038D001D036D0000120EE12F08651D9261A
:1050D0008751DA22DECF8AF0DDCF8BF0000120EE9F
:1050E0000BF08A51D9268B51DA220001DFB802D0A9
:1050F000050EE1D786C0D9FF87C0DAFFDECF01F009
:10510000DDCF02F08AC003F08BC004F05FEC31F019
:10511000000120EE06F08651D9268751DA2201C01F
:10512000DEFF02C0DEFF03C0DEFF04C0DEFF68D783
:1051300000D000018D51120012005B505A1059101E
:1051400004E1020E585CD8A040D020EE12F0565078
:10515000D9265750DA22DE50585CDE505958DE50BE
:105160005A58DE505B58D8B030D0000E0001606F46
:1051700089D056C03BF057C03CF058C03DF059C0F4
:105180003EF05AC03FF05BC040F020EC21F03BC045
:1051900061F03CC062F03DC063F03EC064F00001CD
:1051A0006151000162110001631100016411D8B462
:1051B0007BD001D079D000016105000162110001AE
:1051C000631100016411D8A402D0020E0ED00001B8
:1051D00061290EE1000162290BE10001632908E168
:1051E00000016429D8A404D0010E0001606F5CD0D6
:1051F00056C03BF057C03CF058C03DF059C03EF09F
:105200005AC03FF05BC040F0000E416E000E426E8F
:10521000000E436E000E446E39EC1DF00001606F0D
:10522000000160510001D8A43FD001D03DD020EE54
:105230000EF05650D9265750DA22DE2807E1DE2834
:1052400005E1DE2803E1DE28D8B414D020EE0EF00C
:105250005650D9265750DA22DE2A000EDE22DE22F0
:10526000DE2220EE05F05650D9265750DA22000EE5
:10527000DB8000D061C058F062C059F063C05AF0C2
:1052800064C05BF020EE12F05650D9265750DA2257
:10529000DE50585CDE505958DE505A58DE505B588C
:1052A000D8B002D066D700D00001605112001200C1
:1052B000000E296E20EE04F01B50D9261C50DA2275
:1052C000DF50D8B4ACD020EE2AF01B50D9261C50A9
:1052D000DA22DECF2CF0DECF2DF0DECF2EF0DECFC7
:1052E0002FF02E0E1B24116E000E1C20126E2CC0EF
:1052F00013F02DC014F02EC015F02FC016F0000EC4
:10530000186E010E176E20EE01F01B50D9261C50AE
:10531000DA22DF50BDEC2AF00009D8B403D0010E28
:10532000296E7DD020EE04F01B50D9261C50DA22C5
:10533000000EDF6E20EE16F01B50D9261C50DA222C
:1053400010EE1EF01B50E1261C50E222E6CF21F0A9
:10535000E6CF22F0E6CF23F0E6CF24F0211E221E76
:10536000231E241E212A000E2222232224222C5016
:105370002124256E2D502220266E2E502320276EAC
:105380002F502420286EDE50255CDE502658DE503B
:105390002758DE502858D8B042D020EE03F01B50DA
:1053A000D9261C50DA22DF501D6E1D502A6E2B6A42
:1053B0002B5006E1020E2A5CD8A031D001D02FD0AC
:1053C00020EE16F01B50D9261C50DA22DE502C2677
:1053D000DE502D22DE502E22DD502F222E0E1B24D9
:1053E000116E000E1C20126E2CC013F02DC014F094
:1053F0002EC015F02FC016F0000E186E010E176E9D
:1054000020EE01F01B50D9261C50DA22DF50BDECF3
:105410002AF02A06D8A02B06CBD7D2D700D0295005
:105420001200120045C002F046C003F03FEC30F01D
:105430004B6E4B50D8A49ED020EE04F04550D92698
:105440004650DA22DFAA96D045C0D9FF46C0DAFF1F
:10545000DECF30F0DDCF31F020EE1AF04550D92606
:105460004650DA22DECF32F0DECF33F0DECF34F03A
:10547000DECF35F0E9EC2FF04B6E4B50D8A47AD04C
:1054800020EE1EF04550D9264650DA22DECF4CF0F1
:10549000DDCF4DF020EE0BF04C50D9264D50DA22E6
:1054A000000EDB8A20EE0AF04550D9264650DA225B
:1054B00010EE1CF04C50E1264D50E222DECFE6FF0C
:1054C000DECFE6FFDECFE6FFDECFE6FF4CC001F029
:1054D0004DC002F020EE0EF04550D9264650DA229B
:1054E000DECF03F0DECF04F0DECF05F0DECF06F036
:1054F00024EC33F0000E476E000E486E210E496E0C
:10550000460E4A6E20EE16F04C50D9264D50DA2247
:1055100047C0DEFF48C0DEFF49C0DEFF4AC0DEFFF5
:1055200020EE12F04C50D9264D50DA22000EDE6EDD
:10553000000EDD6E20EE04F04550D9264650DA22EA
:10554000DF0EDF1645C0D9FF46C0DAFF10EE04F0CB
:10555000DE50E126DD50E222010EE76E45C0D9FFA4
:1055600046C0DAFFDECF3AF0DDCF3BF0D8EC26F0D4
:105570004B6E00D04B50120012001A6E1A50D8A475
:1055800004D017501810D8A402D0040E1200000145
:10559000F7A102D0030E12000001F7A502D0020EFF
:1055A00012000001D6B708D0090ED8901336143671
:1055B00015361636E82EF9D717041810D8A426D0B9
:1055C00013C00BF014C00CF015C00DF016C00EF097
:1055D000180E8FEC32F00009D8A465D011C004F089
:1055E00012C005F0066A04500510D8B403D00F0E9F
:1055F0001264068AFE0E076ED2EC30F00009D8B4B1
:1056000052D0000E186E000E4CD04DD0D6C019F0FE
:10561000060E1916D8B409D017C00BF018C00CF03C
:105620000D6A0E6A970E8FEC32F013C00BF014C0A7
:105630000CF015C00DF016C00EF0190E8FEC32F004
:105640000009D8A430D011C004F012C005F0066AD9
:1056500004500510D8B403D00F0E1264068AFC0E55
:10566000076ED2EC30F00009D8B40BD001D009D0CD
:10567000020E12261706D8A0180617501810D8A424
:10568000E2D7000E046E000E056E000E066EFD0ED3
:10569000076ED2EC30F00009D8A405D0000E186EC9
:1056A000010E176E00D08DEC33F017501810D8B4DF
:1056B00002D0010E1200000E1200120080C055F040
:1056C00081C056F0000E586E000E576EE3EC22F0CB
:1056D0000001896F000189510001D8A478D0000E23
:1056E0000001886F000E876F00D080C0D9FF81C095
:1056F000DAFFDECF30F0DDCF31F0000120EE0EF02A
:105700008051D9268151DA22DECF32F0DECF33F05C
:10571000DECF34F0DECF35F0E9EC2FF00001896FF9
:10572000000189510001D8A452D001D050D000010D
:1057300020EE12F08051D9268151DA22DECF84F09A
:10574000DDCF85F084C0D9FF85C0DAFFE50EDE1815
:10575000D8B412D0000120EE12F08051D926815128
:10576000DA22DECF84F0DDCF85F084C0D9FF85C09A
:10577000DAFFDF50D8A411D00001874B882B00013D
:105780008251000187190FE100018351000188193E
:10579000D8B41DD008D01BD006D0000E0001886FF1
:1057A000000E876F00D080C06DF081C06EF0000EDB
:1057B0000001706F010E6F6F4EEC16F00001896FE3
:1057C000000189510001D8A402D08FD700D0040E67
:1057D00000018919D8A403D0070E0001896F0001C8
:1057E00089511200120080C055F081C056F0000EA1
:1057F000586E000E576EE3EC22F00001856F000139
:1058000085510001D8B404D000018551120000D0A8
:1058100080C0D9FF81C0DAFFDECF30F0DDCF31F0BC
:10582000000120EE0EF08051D9268151DA22DECF20
:1058300032F0DECF33F0DECF34F0DECF35F0E9ECFE
:105840002FF00001856F000185510001D8A454D0CC
:1058500001D052D0000120EE12F08051D9268151A2
:10586000DA22DECF83F0DDCF84F083C0D9FF84C09D
:10587000DAFFDF500001826F000182510001D8A4DD
:1058800004D0040E0001856F37D0000120EE0BF02C
:105890008351D9268451DA220001DFB61BD083C0A0
:1058A00001F084C002F0000120EE14F08051D926EE
:1058B0008151DA22DECF03F0DDCF04F0000E066E58
:1058C0000B0E056EDAEC31F001500210D8B414D092
:1058D00001D012D080C06DF081C06EF0000E0001CA
:1058E000706F000E6F6F4EEC16F00001856F0001B7
:1058F00085510001D8B48CD70001855112001200E7
:1059000009680A6801C0D9FF02C0DAFFDE50DE1064
:10591000D8B47CD001C0D9FF02C0DAFFDECF0DF0D1
:10592000DDCF0EF003D00D4A0E2A00D0000E066E19
:10593000210E03D0000E066E200E056E00D00DC0A5
:10594000F6FF0EC0F7FFF86A0800F550036E046A10
:105950000550035C06500458D8A00CD00DC0F6FFCB
:105960000EC0F7FFF86A0800F5503A0AD8B402D022
:10597000DAD700D00DC0F6FF0EC0F7FFF86A0800B6
:10598000F5503A0AD8A43DD001C0D9FF02C0DAFFD1
:10599000DECF07F0DDCF08F007C0F6FF08C0F7FF45
:1059A000F86A0800F5CF03F0D00E03240B6E0C6AE2
:1059B000FF0E0C22074A082A0C501EE10A0E0B5C4F
:1059C000D8B01AD00D50071817E10E500818D8A4F7
:1059D00013D00B500C10D8A40FD00BC009F00CC082
:1059E0000AF00D4A0E2A01C0D9FF02C0DAFF0DC02D
:1059F000DEFF0EC0DDFF00D009C001F00AC002F0DA
:105A00001200000E0A6E000E096E00D009C001F0EF
:105A10000AC002F01200120020EE04F03B50D9261A
:105A20003C50DA22000EDF6E20EE2AF03B50D926E1
:105A30003C50DA22FF0EDE6EFF0EDE6EFF0EDE6ED3
:105A4000FF0EDD6E3BC030F03CC031F03DC032F0A7
:105A50003EC033F03FC034F040C035F0E9EC2FF0E9
:105A60000009D8B402D0030E120022EE2CF03B50F5
:105A7000D9263C50DA22550EDE1804E1AA0EDE18B3
:105A8000D8B402D0020E120020EE64F03B50D926AA
:105A90003C50DA22FF0EDE14416EFF0EDE14426E21
:105AA000FF0EDE14436E000EDE14446E460E4118E7
:105AB0000AE1410E421807E1540E43184410D8A4DD
:105AC00002D0000E120020EE80F03B50D9263C5050
:105AD000DA22FF0EDE14416EFF0EDE14426EFF0E60
:105AE000DE14436E000EDE14446E460E41180AE1C9
:105AF000410E421807E1540E43184410D8A402D0B6
:105B0000000E1200010E120012008AC080F08BC03D
:105B100081F0000E0001836F010E826F5EEC2BF0AE
:105B200000018C6F00018C510001D8A45ED08AC0A6
:105B3000D9FF8BC0DAFFDECF30F0DDCF31F00001CE
:105B400020EE0EF08A51D9268B51DA22DECF32F0C8
:105B5000DECF33F0DECF34F0DECF35F0E9EC2FF0DE
:105B600000018C6F00018C510001D8A43ED00001CF
:105B700020EE12F08A51D9268B51DA22DECF01F0C5
:105B8000DDCF02F0000E046E000E036E000E066EF6
:105B9000200E056E0DEC33F0000120EE12F08A515C
:105BA000D9268B51DA22DECF01F0DDCF02F00001E1
:105BB00020EE14F08A51D9268B51DA22DECF03F081
:105BC000DDCF04F0000E066E0B0E056ECEEC2EF04F
:105BD0008AC0D9FF8BC0DAFF10EE04F0DE50E12658
:105BE000DD50E222010EE76E00D000018C51120060
:105BF0001200196E1950D8A404D017501810D8A448
:105C000002D0040E12000001F7A102D0030E120010
:105C10000001D6B708D0090ED890133614361536C1
:105C20001636E82EF9D7185008E1020E175CD8B0E6
:105C300004D0000E1B6E110E03D0000E1B6E120E50
:105C40001A6E00D01AC01CF013C00BF014C00CF078
:105C500015C00DF016C00EF01C508FEC32F000098C
:105C6000D8A428D011C002F012C003F0020E056EB5
:105C7000000E046EA0EC31F00009D8B40BD001D0B6
:105C800009D0020E12261706D8A0180617501810B1
:105C9000D8A4E8D7120E1C18D8A40CD0000E0B6E96
:105CA000000E0C6E000E0D6E000E0E6E0C0E8FECC4
:105CB00032F000D08DEC33F017501810D8B402D069
:105CC000010E1200000E1200120078EC33F00A0EE2
:105CD000526E0D0E536E0F0E546E100E556E010E59
:105CE000566E8EEC2FF00009D8A455D08A9000D0C3
:105CF000D70E00019A6F000E00019B6F1F0E00016E
:105D00009C6F100E00019D6F130E00019E6F11EC31
:105D10001BF00009D8A43FD00001E1510001E211BD
:105D20000001E3110001E411D8B415D0D70E000131
:105D30006D6F000E00016E6FE1C06FF0E2C070F099
:105D4000E3C071F0E4C072F071EC12F00009D8A465
:105D50001CD001D01AD0D70E00016D6F000E0001CB
:105D60006E6F010E00016F6F100E0001706F000E5C
:105D70000001726F0E0E716FD00E0001736F000E76
:105D80000001746FD7EC0DF000D0D70E4E6E000EF0
:105D90004F6ED3EC32F0FFD700EF00F001C009F0F6
:105DA00002C00AF003C00BF004C00CF02DD00BC0F1
:105DB000F6FF0CC0F7FF000EF86E0F0EF76407D069
:105DC0000900F5CF07F00900F5CF08F008D0F6CFAD
:105DD000E9FFF7CFEAFFEECF07F0EECF08F009C0FA
:105DE000D9FF0AC0DAFF07C0DEFF08C0DDFF020EE0
:105DF0000926000E0A22020E0B26000E0C22020EAD
:105E0000055E000E065A00D00650D1E1020E055C78
:105E1000D8A01DD0CCD71BD00BC0F6FF0CC0F7FF0D
:105E2000000EF86E09C0D9FF0AC0DAFF0F0EF76442
:105E300003D00800F55005D0F6CFE9FFF7CFEAFF11
:105E4000EF50DF6E0B4A0C2A094A0A2A00D00506D9
:105E5000D8A006060528E0E10628D8A4DDD7120060
:105E6000020E0F5E000E105A115A125A20EE12F056
:105E70000D50D9260E50DA22FE0EDE24136EFF0ED0
:105E8000DE20146EFF0EDE20156EFF0EDE20166E75
:105E900013500F5C145010581550115816501258CA
:105EA000D8A009D0000E0D6E000E0E6E000E0F6E03
:105EB000000E106E120020EE26F00D50D9260E5066
:105EC000DA22DECF13F0DECF14F0DECF15F0DECF16
:105ED00016F020EE02F00D50D9260E50DA22DF50D7
:105EE000176E1750016E026A036A046A0FC005F04C
:105EF00010C006F011C007F012C008F013EC32F029
:105F0000135001240D6E145002200E6E1550032004
:105F10000F6E16500420106E1200120054C05AF07A
:105F200055C05BF05A0E016E000E026E80EC2CF034
:105F300001C05CF002C05DF05DAE02D00B0E12003D
:105F4000D8905C34D96E5D34DA6ED40ED926000E4A
:105F5000DA22DECF58F0DDCF59F058505910D8B4BE
:105F600007D058C0D9FF59C0DAFF000EDF6E00D04D
:105F700052505310D8B407D052C0D9FF53C0DAFFE3
:105F8000000EDF6E00D0D8905C34D96E5D34DA6ECE
:105F9000D40ED926000EDA2252C0DEFF53C0DDFF38
:105FA00052505310D8B403D05604D8B402D0000EC7
:105FB0001200520E456E000E466E540E476E000ED5
:105FC000486E000E496E15EC08F0576E57501200DF
:105FD0001200000E3A6E20EE2AF03050D9263150D1
:105FE000DA223250DE180AE13350DE1807E134506D
:105FF000DE1804E13550DE18D8B43ED030C01BF0B6
:1060000031C01CF058EC29F03A6E3A50D8A434D084
:106010002E0E3024116E000E3120126E32C013F09D
:1060200033C014F034C015F035C016F0000E186EF1
:10603000010E176E20EE01F03050D9263150DA22D1
:10604000DF50F9EC2DF00009D8B407D0326833687E
:1060500034683568010E3A6E00D020EE2AF03050D8
:10606000D9263150DA2232C0DEFF33C0DEFF34C021
:10607000DEFF35C0DEFF00D03A501200120002C031
:1060800008F003C009F008500910D8B43ED008C089
:10609000D9FF09C0DAFFDE50DE10D8B436D008C010
:1060A000D9FF09C0DAFFDECF04F0DDCF05F004C070
:1060B000D9FF05C0DAFFDF50D8B427D020EE02F0B8
:1060C0000850D9260950DA2208C0E1FF09C0E2FFD2
:1060D00000EE06F0E650E926E550EA22DE50EE1822
:1060E00014E1DE50EE18D8A410D008C0D9FF09C0C2
:1060F000DAFF10EE01F0DE50E126DD50E222E7503B
:106100005EEC33F0046E04A002D0090E1200000E03
:10611000120012000A6E0C0E0A18D8B40AD08DECC8
:1061200033F04DEC33F00009D8A403D0FF0E120079
:1061300000D00A50400968EC33F0075068EC33F0A7
:10614000065068EC33F0055068EC33F0045068EC0E
:1061500033F0010E096E0A50D8A403D0950E096ED3
:1061600000D0080E0A18D8A403D0870E096E00D0FC
:10617000095068EC33F00C0E0A18D8A404D0FF0EB6
:1061800068EC33F000D00A0E096E00D0FF0E68EC08
:1061900033F0086E08AE03D0092EF8D700D00850AF
:1061A00012001200B2EC32F00009D8A402D0000EA6
:1061B0001200075068EC33F0FD0E0718D8B436D043
:1061C000020E096E000E086E00D004C0F6FF05C076
:1061D000F7FF06C0F8FFF8BA03D00800F55005D065
:1061E000F6CFE9FFF7CFEAFFEF5068EC33F0010E8E
:1061F0000426000E0522000E06220806D8A0090675
:1062000008500910D8A4E1D7FF0E68EC33F0FF0E58
:1062100068EC33F0FF0E68EC33F00A6E0A501F0B87
:10622000050AD8B403D0000E120000D0010E1200EF
:106230001200000E096E000E0A6E000E0B6E000EAC
:106240000C6E0550061007100810D8B42FD0010EA0
:106250000D6E07D0D89005360636073608360D2A5B
:1062600000D008BE02D0F6D700D0D89009360A3642
:106270000B360C360550015C065002580750035887
:1062800008500458D8A00AD00550015E0650025AA2
:106290000750035A0850045A098000D0D890083299
:1062A0000732063205320D2EE0D700D009C001F0CA
:1062B0000AC002F00BC003F00CC004F012001A0E6A
:1062C0000324D96E000E0420DA6EDECF05F0DDCF98
:1062D00006F005C00BF006C00CF00D6A0E6A01C096
:1062E000D9FF02C0DAFF030EDE18D8A41FD0140EA7
:1062F0000324D96E000E0420DA6EDECF05F0DDCF68
:1063000006F00550076E0650086E096A0A6A08C052
:106310000AF007C009F0086A076A07500B12085014
:106320000C1209500D120A500E1200D00BC001F0D1
:106330000CC002F00DC003F00EC004F012001200F9
:10634000070E076ED00E066E10D0FF0E68EC33F00D
:10635000086E0828D8A40DD001D00BD0850EE82EE9
:10636000FED700F00606D8A0070606500710D8A4EE
:10637000ECD7FE0E0818D8B403D0000E120000D0DF
:10638000FF0E68EC33F002C0D9FF03C0DAFFDF6E06
:10639000024A032A0406D8A0050604500510D8A412
:1063A000EFD7FF0E68EC33F0FF0E68EC33F0010E10
:1063B0001200120001C00AF002C00BF003C00CF082
:1063C00004C00DF0000E0F6E000E0E6E00D005061C
:1063D000D8A00606052803E10628D8B41FD00CC0B3
:1063E000D9FF0DC0DAFF0C4A0D2ADF50076E086A8C
:1063F000071E081E074A082A0AC0D9FF0BC0DAFF89
:106400000A4A0B2ADF50096E095007240E6E000E4F
:1064100008200F6E0E500F10D8B4D9D70EC001F05F
:106420000FC002F01200000E096E000E0A6E000E80
:106430000B6E000E0C6E00D001A009D0055009268D
:1064400006500A2207500B2208500C2200D0D89088
:106450000536063607360836D89004320332023243
:1064600001320150021003100410D8A4E5D709C06E
:1064700001F00AC002F00BC003F00CC004F01200DF
:1064800003D0014A022A00D001C0F6FF02C0F7FF84
:10649000F86A0800F5500009D8B412D001C0F6FF20
:1064A00002C0F7FFF86A0800F550056E066A03504F
:1064B0000518E7E104500618D8B402D0E2D700D09E
:1064C00001C0F6FF02C0F7FFF86A0800F550016E40
:1064D000026A12001200000E896E92682F0E0F01E0
:1064E000386F010E8A6EFE0E936E3E0E0F01396FED
:1064F000000E616E010E8B6ED60E946EC40E0F01EF
:106500003A6F000E8C6E95680F013B69000E8D6E20
:10651000070E966E070E0F013C6FF18E12000F6E84
:106520000FAE13D00F9E000E046E000E056E000E0F
:10653000066E000E076E370E8AEC30F0106E010EFC
:10654000106403D01050120000D00BC004F00CC037
:1065500005F00DC006F00EC007F00F508AEC30F0C9
:1065600012001200130E036E880E026E0FD0FF0E83
:1065700068EC33F0FF0AD8B40DD001D00BD0850EF3
:10658000E82EFED700F00206D8A003060250031042
:10659000D8A4EDD702500310D8B402D0010E1200D7
:1065A000000E120012004EC045F04FC046F012EC33
:1065B0002AF0506E5050D8A412004EC002F04FC0C6
:1065C00003F03FEC30F0506E5050D8A412004EC093
:1065D000D9FF4FC0DAFF000EDE6E000EDD6E120036
:1065E00012000DEE0AF012EE2EF0EE6AE550E150C8
:1065F000FCE1E250FAE100EED2F0250EEE6AE80688
:10660000FDE1260EF66E670EF76E000EF86E0900BD
:10661000F5CFF7F0000165EF2EF001C007F002C0E2
:1066200008F009D007C0D9FF08C0DAFF03C0DFFFB8
:10663000074A082A00D00506D8A006060528F2E178
:106640000628D8A4EFD7120020EE1AF00150D92660
:106650000250DA2203C0DEFF04C0DDFF20EE14F09A
:106660000150D9260250DA2205C0DEFF06C0DDFF48
:10667000120001500302F3CF05F0F4CF06F00150F1
:106680000402F350062602500302F350062605C00A
:1066900001F006C002F0120012008B9000D0FF0E35
:1066A00068EC33F0B2EC32F00009D8B402D0010E3D
:1066B00012008DEC33F0000E12001200016E01503A
:1066C000D8B402D0010E12000001F75112001200DE
:1066D000016EC69E01C0C9FF00D0C7A0FED7C95039
:1066E0001200400EC76E200EC66E000EC86E12005D
:1066F00086EC33F06BEC32F07FEC33F01200400E9E
:10670000C76E220EC66E000EC86E1200720ED36ED9
:10671000040ED26E000E9B6E12008B8000D0FF0E16
:0867200068EC33F012000100E7
:020000040020DA
:08000000FFFFFFFFFFFFFFFF00
:020000040030CA
:0E000000FF481E3CFF3D81FF0FC00FE00F4088
:00000001FF
