:020000040000FA
:040000007BEF2DF075
:101000000048656C6C6F20776F726C6421205468A7
:1010100069732069732074657874206D65737361DA
:101020006765207772697474656E20746F207364CD
:1010300020636172640D0A00222A2B2C3A3B3C3D4E
:101040003E3F5B5D7C7F00746573742E7478740022
:01105000009F
:1010520045C0D9FF46C0DAFF000EDE6E000EDD6E1F
:1010620047C001F048C002F034EC28F001C080F023
:1010720002C081F0000181AF02D00B0E1200D890A5
:101082008035D96E8135DA6ED40ED926000EDA2279
:10109200DECF98F0DDCF99F098519911D8A402D003
:1010A2000C0E120045C0D9FF46C0DAFF98C0DEFF21
:1010B20099C0DDFF98C0D9FF99C0DAFFDF50D8B4DC
:1010C20015D020EE01F09851D9269951DA22DF503D
:1010D20021EC2EF000018C6F8CB108D04950D8A4BD
:1010E2008CA502D00A0E1200000E120098C0D9FF81
:1010F20099C0DAFF000EDF6E20EE01F09851D9267A
:101102009951DA2280C0DFFF20EE01F09851D926F2
:101112009951DA22DF50DCEC21F000018C6F8CA1B6
:1011220002D0030E12004950D8B402D08CB5DAD7DF
:10113200000E916F000E926F000E936F000E946F6F
:1011420098C03BF099C03CF0000E3D6E000E3E6E22
:10115200000E3F6E000E406EBEEC27F00001976F4E
:101162009705D8A4AED0000E966F000E956F9651DB
:101172005AE1040E955DD8B056D095C04AF096C09B
:101182004BF04A3A4B3AF00E4B164A500F0B4B12A9
:10119200F00E4A1698C04CF099C04DF04A504C26B9
:1011A2004B504D22EC0E4C247A6F010E4D207B6F7A
:1011B20020EE04F07A51D9267B51DA22DF50D8A4EE
:1011C20009D0000E706F000E716F000E726F000E6C
:1011D200736F0ED020EE08F07A51D9267B51DA22B5
:1011E200DECF70F0DECF71F0DECF72F0DECF73F0C3
:1011F200600E4A6E000E4B6ED8909535D96E9635BC
:10120200DA6ED890D936DA364A50D9264B50DA22DD
:1012120070C0DEFF71C0DEFF72C0DEFF73C0DEFF92
:10122200954B962BA4D7000E966F000E956F955195
:101232009611D8B403D09507D8A09607600E4A6ECF
:10124200000E4B6ED8909535D96E9635DA6ED890E1
:10125200D936DA364A50D9264B50DA22DECF91F00F
:10126200DECF92F0DECF93F0DECF94F09151921167
:1012720093119411D8A405D0000E756F020E746FED
:1012820013D098C03BF099C03CF091C03DF092C0A1
:101292003EF093C03FF094C040F0BEEC27F04A6E9F
:1012A2004A500001746F756B74C097F09751D8B4AF
:1012B20008D0954B962B965104E1040E955DD8A06B
:1012C200BDD7030E9719D8A402D0010E1200975170
:1012D200D8B402D00D0E120020EE39F09851D92662
:1012E2009951DA22DE50F6E1020EDE18D8A4F2D7C6
:1012F20020EE44F09851D9269951DA22DECF4AF0F5
:10130200DDCF4BF04AC08DF04BC08EF08F6B906BEF
:101312008D518E118F119011D8A40ED020EE52F063
:101322009851D9269951DA22DECF8DF0DECF8EF098
:10133200DECF8FF0DECF90F020EE16F09851D92656
:101342009951DA228DC0DEFF8EC0DEFF8FC0DEFF34
:1013520090C0DEFF20EE3EF09851D9269951DA2254
:1013620010EE03F09851E1269951E222DFCFE7FF18
:1013720020EE03F09851D9269951DA22DE04D8B42E
:101382000AD020EE03F09851D9269951DA22020EA2
:10139200DE18D8A49FD78DC001F08EC002F08FC096
:1013A20003F090C004F020EE03F09851D926995131
:1013B200DA22DF504A6E4A50056E066A076A086AE8
:1013C200ECEC2CF001C08DF002C08EF003C08FF067
:1013D20004C090F0000120EE3BF09851D9269951BB
:1013E200DA2210EE02F09851E1269951E222DFCF83
:1013F200E7FF20EE02F09851D9269951DA22DF5008
:10140200D8B468D7FF0E4A6EFF0E4B6E20EE02F084
:101412009851D9269951DA22DF504C6E4D6A4A50C2
:101422004C264B504D2220EE02F09851D92699516C
:10143200DA22DF504E6E4E504C16000E4D164C50B6
:101442004D10D8A447D720EE3FF09851D926995194
:10145200DA2210EE08F09851E1269951E222DECF0D
:10146200E6FFDDCFE5FF20EE08F09851D92699512D
:10147200DA22DECF4AF0DDCF4BF00F0E4A16000E15
:101482004B164A504B10D8A425D720EE41F0985164
:10149200D9269951DA22DECF4AF0DDCF4BF04AC08D
:1014A20084F04BC085F0866B876B84518511861161
:1014B2008711D8A40ED020EE4EF09851D92699511A
:1014C200DA22DECF84F0DECF85F0DECF86F0DECF0B
:1014D20087F020EE3CF09851D9269951DA22DECFDE
:1014E20082F0DDCF83F082518311D8B4F3D620EE9F
:1014F20008F09851D9269951DA22DECF4AF0DDCF91
:101502004BF0040E4C6ED8904B324A324C2EFBD725
:1015120082514A244D6E83514B204E6E4F6AD8B091
:101522004F2A506A8D514D247C6F8E514E207D6F13
:101532008F514F207E6F905150207F6F7C51845D80
:101542007D5185597E5186597F518759D8A0C2D67F
:101552007C51845D016E7D518559026E7E518659A2
:10156200036E7F518759046E20EE02F09851D926FE
:101572009951DA22DF504A6E4A50056E066A076AAE
:10158200086A83EC2BF001C088F002C089F003C026
:101592008AF004C08BF00001885189118A118B11E5
:1015A200D8B498D6010E976F8B518A1106E1F60EC8
:1015B200885D0F0E8959D8A002D0020E976F8B5109
:1015C2008A1106E1F60E885DFF0E8959D8A002D075
:1015D200030E976F020E88254A6E000E89214B6E0C
:1015E200000E8A214C6E000E8B214D6E20EE12F001
:1015F2009851D9269951DA224AC0DEFF4BC0DEFF4C
:101602004CC0DEFF4DC0DEFF20EE1AF09851D92605
:101612009951DA2291C0DEFF92C0DEFF93C0DEFF55
:1016220094C0DEFF825191254A6E835192214B6E06
:10163200000E93214C6E000E94214D6E20EE1EF092
:101642009851D9269951DA224AC0DEFF4BC0DEFFFB
:101652004CC0DEFF4DC0DEFF7C5191254A6E7D51AC
:1016620092214B6E7E5193214C6E7F5194214D6E8F
:1016720020EE26F09851D9269951DA224AC0DEFF8F
:101682004BC0DEFF4CC0DEFF4DC0DEFF030E9719DC
:10169200D8A43DD020EE08F09851D9269951DA22EB
:1016A200DE50DE10D8A416D620EE5AF09851D92674
:1016B2009951DA2210EE22F09851E1269951E22254
:1016C200DECFE6FFDECFE6FFDECFE6FFDECFE6FFD0
:1016D20020EE12F09851D9269951DA22DECF4AF043
:1016E200DECF4BF0DECF4CF0DECF4DF0020ED890C5
:1016F2004A364B364C364D36E82EF9D74AC076F08C
:101702004BC077F04CC078F04DC079F091D020EE0C
:1017120008F09851D9269951DA22DE50DE10D8B459
:10172200D9D520EE1EF09851D9269951DA22DECF72
:101732004AF0DECF4BF0DECF4CF0DECF4DF08D51D4
:101742004A244E6E8E514B204F6E8F514C20506E5C
:1017520090514D20516E20EE22F09851D926995188
:10176200DA224EC0DEFF4FC0DEFF50C0DEFF51C0A6
:10177200DEFF020E9719D8B444D020EE12F0985131
:10178200D9269951DA22DECF4AF0DECF4BF0DECFF6
:101792004CF0DECF4DF0010E4A144E6E000E4B148B
:1017A2004F6E000E4C14506E000E4D14516E20EE12
:1017B20012F09851D9269951DA22DECF01F0DECF0C
:1017C20002F0DECF03F0DECF04F0030E056E000E52
:1017D200066E000E076E000E086EECEC2CF0D89030
:1017E20004320332023201324E5001240001766F7C
:1017F2004F500220776F50500320786F51500420D1
:1018020016D020EE12F09851D9269951DA22DECF65
:101812004AF0DECF4BF0DECF4CF0DECF4DF0D89069
:101822004A34766F4B34776F4C34786F4D34796F1E
:10183200FF0E76254A6E010E77214B6E000E78213F
:101842004C6E000E79214D6E0A0E05D0D8904D32A5
:101852004C324B324A32E82EF9D720EE16F098512C
:10186200D9269951DA224A50DE5C4B50DE584C5050
:10187200DE584D50DE58D8A02DD520EE0EF09851EE
:10188200D9269951DA22FF0EDE6EFF0EDE6EFF0EB2
:10189200DE6EFF0EDD6EDD52DD5210EE0AF0985163
:1018A200E1269951E222DECFE6FFDECFE6FFDECF70
:1018B200E6FFDECFE6FF20EE05F09851D9269951DA
:1018C200DA22800EDF6E030E9719D8A483D020EEA1
:1018D2005EF09851D9269951DA22DE04DE10D8A49E
:1018E20079D098C030F099C031F0010E9125326E56
:1018F200000E9221336E000E9321346E000E94215D
:10190200356EE6EC2AF00009D8A464D0000120EE7E
:1019120005F09851D9269951DA22000EDF6E22EE97
:101922002CF09851D9269951DA22550EDE1852E13F
:10193200AA0EDE18D8A44ED020EE2EF09851D92649
:101942009951DA22520EDE1845E1520EDE1842E1BA
:10195200610EDE183FE1410EDE18D8A43BD022EE24
:1019620012F09851D9269951DA22720EDE1832E11C
:10197200720EDE182FE1410EDE182CE1610EDE1828
:10198200D8A428D022EE16F09851D9269951DA22FD
:1019920010EE0EF09851E1269951E222DECFE6FFD9
:1019A200DECFE6FFDECFE6FFDECFE6FF22EE1AF065
:1019B2009851D9269951DA2210EE0AF09851E1266F
:1019C2009951E222DECFE6FFDECFE6FFDECFE6FF71
:1019D200DECFE6FF98C0D9FF99C0DAFF97C0DFFFDC
:1019E2000001D24BD32B20EE06F09851D926995103
:1019F200DA22D2C0DEFFD3C0DDFF75EF08F06FC080
:101A020082F070C083F073C0D9FF74C0DAFF000E99
:101A1200DE6E000EDD6E6DC002F06EC003F039ECBA
:101A22002BF00001816F8151D8A4120020EE05F045
:101A32006D51D9266E51DA22DF50D8A4120020EE61
:101A420004F06D51D9266E51DA22DFA2120020EE87
:101A520006F06D51D9266E51DA2210EE06F06D5164
:101A6200E1266E51E222E6CF79F0E6CF7AF0E6CFB8
:101A72007BF0E6CF7CF0715179257D6F72517A212E
:101A82007E6F000E7B217F6F000E7C21806FDE5007
:101A92007D5DDE507E59DE507F59DE508059D8B0D0
:101AA20029D3000E726F000E716F24D320EE06F060
:101AB2006D51D9266E51DA22FF0EDE14756F010EBA
:101AC200DE14766F000EDE14776F000EDE14786F70
:101AD2007551761177117811D8A46AD220EE06F0EA
:101AE2006D51D9266E51DA22DECF75F0DECF76F057
:101AF200DECF77F0DECF78F00A0E05D0D8907833BB
:101B0200773376337533E82EF9D76DC0D9FF6EC0BF
:101B1200DAFF10EE02F0DE50E126DD50E222E7505D
:101B2200796F79057515846F8451D8A4A3D020EEFE
:101B320006F06D51D9266E51DA22DE50DE10DE102B
:101B4200DE10D8A427D020EE0EF06D51D9266E51AA
:101B5200DA22DECF8BF0DECF8CF0DECF8DF0DECF5F
:101B62008EF08B518C118D118E11D8A433D06DC093
:101B7200D9FF6EC0DAFFDECF56F0DDCF57F0000E90
:101B8200586E000E596E000E5A6E000E5B6EBCEC63
:101B92001DF018D06DC0D9FF6EC0DAFFDECF56F04F
:101BA200DDCF57F020EE12F06D51D9266E51DA22B8
:101BB200DECF58F0DECF59F0DECF5AF0DECF5BF049
:101BC200BCEC1DF056C08BF057C08CF058C08DF0A5
:101BD20059C08EF000018B518C118D118E11D8B429
:101BE2008DD28B058C118D118E11D8A409D020EEC7
:101BF20005F06D51D9266E51DA22020EDF6E120007
:101C02008B2910E18C290EE18D290CE18E29D8A4B3
:101C120009D020EE05F06D51D9266E51DA22010E5F
:101C2200DF6E120020EE12F06D51D9266E51DA22CB
:101C32008BC0DEFF8CC0DEFF8DC0DEFF8EC0DEFFFC
:101C420020EE0EF06D51D9266E51DA22DE50DE10F2
:101C5200DE10DE10D8A40ED020EE0EF06D51D92683
:101C62006E51DA228BC0DEFF8CC0DEFF8DC0DEFF3C
:101C72008EC0DEFF20EE16F06D51D9266E51DA22AB
:101C82006DC0E1FF6EC0E2FF00EE2AF0E650E926E9
:101C9200E550EA22DE50EE1821E1DE50EE181EE198
:101CA200DE50EE181BE1DE50EE18D8A417D06DC03E
:101CB200D9FF6EC0DAFFDECF1BF0DDCF1CF0B3EC34
:101CC20023F00009D8B40AD0000120EE05F06D51CE
:101CD200D9266E51DA22010EDF6E12006DC0D9FFD5
:101CE2006EC0DAFFDECF0DF0DDCF0EF0000120EE88
:101CF20012F06D51D9266E51DA22DECF0FF0DECF0F
:101D020010F0DECF11F0DECF12F031EC2AF00DC070
:101D120087F00EC088F00FC089F010C08AF0000171
:101D22008751881189118A11D8A409D020EE05F0B3
:101D32006D51D9266E51DA22020EDF6E12008451E5
:101D42008727000E882389238A2371C075F072C009
:101D520076F0090E776FD89076337533772FFBD7ED
:101D620075C085F076C086F085518611D8B4D2D080
:101D720084518525756F000E8621766F6DC0D9FF5F
:101D82006EC0DAFF10EE02F0DE50E126DD50E222F4
:101D9200E750776F786B7551775D76517859D8B087
:101DA20012D06DC0D9FF6EC0DAFF10EE02F0DE5025
:101DB200E126DD50E222E750756F8451755D856F33
:101DC200866BD8A0860782C011F083C012F087C04C
:101DD20013F088C014F089C015F08AC016F085C0CF
:101DE20017F086C018F06DC0D9FF6EC0DAFF10EE92
:101DF20001F0DE50E126DD50E222E75048EC26F009
:101E02000009D8B40AD0000120EE05F06D51D926A0
:101E12006E51DA22010EDF6E120000018551756FDC
:101E22008651766F776B786B6DC0D9FF6EC0DAFF23
:101E320010EE2AF0DE50E126DD50E222E6CF79F004
:101E4200E6CF7AF0E6CF7BF0E6CF7CF08751795D82
:101E52007D6F88517A597E6F89517B597F6F8A5184
:101E62007C59806F75517D5D76517E5977517F59CE
:101E720078518059D8B03ED06DC0D9FF6EC0DAFF1C
:101E8200DECF75F0DDCF76F02E0E7525016E000ED9
:101E92007621026E6DC0D9FF6EC0DAFF10EE2AF015
:101EA200DE50E126DD50E222E6CF77F0E5CF78F092
:101EB2008751775F8851785B090ED89077377837EA
:101EC200E82EFBD777518225036E78518321046E69
:101ED200020E066E000E056E74EC29F06DC0D9FF7D
:101EE2006EC0DAFF10EE04F0DE50E126DD50E22291
:101EF200000EE76E85C075F086C076F0090ED890A8
:101F0200000175377637E82EFAD775C08FF076C0A4
:101F120090F0D2D020EE0AF06D51D9266E51DA221D
:101F220010EE06F06D51E1266E51E222DE50E65CC3
:101F3200DE50E658DE50E658DE50E658D8A029D0EA
:101F42006DC0D9FF6EC0DAFFDECF1BF0DDCF1CF013
:101F5200B3EC23F00009D8B40AD0000120EE05F05A
:101F62006D51D9266E51DA22010EDF6E12006DC05C
:101F7200D9FF6EC0DAFF10EE2AF0DE50E126DD5006
:101F8200E22287C0E6FF88C0E6FF89C0E6FF8AC07A
:101F9200E6FF000120EE16F06D51D9266E51DA22CD
:101FA20087C0DEFF88C0DEFF89C0DEFF8AC0DEFF99
:101FB200FF0E756F010E766F20EE06F06D51D92679
:101FC2006E51DA22DECF77F0DDCF78F075517717D8
:101FD20076517817775100088F6F7851D8A0E82A88
:101FE2000208906F8F51715D90517259D8B004D030
:101FF20071C08FF072C090F06DC0D9FF6EC0DAFF71
:10200200DECF30F0DDCF31F020EE16F06D51D92663
:102012006E51DA22DECF32F0DECF33F0DECF34F093
:10202200DECF35F0E6EC2AF00009D8B40AD0000180
:1020320020EE05F06D51D9266E51DA22010EDF6EC7
:102042001200FF0E0001756F010E766F20EE06F092
:102052006D51D9266E51DA22DECF77F0DDCF78F0DE
:1020620075517717765178176DC0D9FF6EC0DAFFB8
:10207200DECF79F0DDCF7AF07751792778517A2364
:102082002E0E7925016E000E7A21026E82C003F0B7
:1020920083C004F08FC005F090C006F074EC29F004
:1020A2006DC0D9FF6EC0DAFF10EE04F0DE50E126FB
:1020B200DD50E222010EE76E00018F51822790511E
:1020C200832320EE06F06D51D9266E51DA228F510C
:1020D200DE269051DE22000EDE22DE2273C0D9FF00
:1020E20074C0DAFF8F51DE269051DD228F51715F6D
:1020F2009051725B71517211D8A4D8D420EE06F0BF
:102102006D51D9266E51DA2210EE0AF06D51E12698
:102112006E51E222DE50E65CDE50E658DE50E658B2
:10212200DE50E658D8B014D020EE06F06D51D92614
:102132006E51DA2210EE0AF06D51E1266E51E22262
:10214200DECFE6FFDECFE6FFDECFE6FFDECFE6FF45
:1021520020EE04F06D51D9266E51DA22000EDB8A90
:1021620012006DC002F06EC003F039EC2BF00001DA
:10217200876F8751D8B402D08751120020EE05F044
:102182006D51D9266E51DA22DF50D8B408D020EE34
:1021920005F06D51D9266E51DA22DF50120020EE81
:1021A2000AF06D51D9266E51DA226F51DE5C705100
:1021B200DE587151DE587251DE58D8B016D020EE7A
:1021C20004F06D51D9266E51DA22DFB20ED020EE24
:1021D2000AF06D51D9266E51DA22DECF6FF0DECFD2
:1021E20070F0DECF71F0DECF72F020EE06F06D51AE
:1021F200D9266E51DA22DECF83F0DECF84F0DECF35
:1022020085F0DECF86F0000E886F000E896F000E1B
:102212008A6F000E8B6F20EE06F06D51D9266E513B
:10222200DA2288C0DEFF89C0DEFF8AC0DEFF8BC0F3
:10223200DEFF6F51701171117211D8B42DD26DC0C1
:10224200D9FF6EC0DAFF10EE02F0DE50E126DD505B
:10225200E222E750736F73C074F0756B766B776B25
:10226200090ED8907437753776377737E82EF9D755
:1022720074C08CF075C08DF076C08EF077C08FF090
:102282008351841185118611D8B497D0FF0E6F2522
:10229200016EFF0E7021026EFF0E7121036EFF0EA2
:1022A2007221046E8CC005F08DC006F08EC007F05E
:1022B2008FC008F083EC2BF001C073F002C074F001
:1022C20003C075F004C076F0FF0E00018325016E95
:1022D200FF0E8421026EFF0E8521036EFF0E862102
:1022E200046E8CC005F08DC006F08EC007F08FC062
:1022F20008F083EC2BF001500001735D0250745919
:102302000350755904507659D8A057D0FF0E8C252A
:10231200736FFF0E8D21746FFF0E8E21756FFF0E8E
:102322008F21766F731D776F741D786F751D796FAE
:10233200761D7A6FFF0E83257B6FFF0E84217C6FE3
:10234200FF0E85217D6FFF0E86217E6F77517B15F3
:102352007F6F78517C15806F79517D15816F7A512D
:102362007E15826F20EE06F06D51D9266E51DA226B
:102372007FC0DEFF80C0DEFF81C0DEFF82C0DEFFE5
:1023820020EE06F06D51D9266E51DA22DE506F5FD3
:10239200DE50705BDE50715BDD50725B20EE12F03E
:1023A2006D51D9266E51DA22DECF90F0DECF91F058
:1023B200DECF92F0DECF93F06ED020EE0EF06D51B4
:1023C200D9266E51DA22DECF90F0DECF91F0DECF49
:1023D20092F0DECF93F09051911192119311D8A403
:1023E2004CD06DC0D9FF6EC0DAFFDECF56F0DDCF24
:1023F20057F0000E586E000E596E000E5A6E000E07
:102402005B6EBCEC1DF056C090F057C091F058C006
:1024120092F059C093F0000190059111921193111D
:10242200D8A40AD020EE05F06D51D9266E51DA22D9
:10243200020EDF6E020E1200902911E191290FE1C6
:1024420092290DE19329D8A40AD020EE05F06D510E
:10245200D9266E51DA22010EDF6E010E120020EE35
:102462000EF06D51D9266E51DA2290C0DEFF91C076
:10247200DEFF92C0DEFF93C0DEFF20EE12F06D5150
:10248200D9266E51DA2290C0DEFF91C0DEFF92C0E3
:10249200DEFF93C0DEFF9051911192119311D8A4E7
:1024A20097D0FAD020EE04F06D51D9266E51DA227F
:1024B200DFA22AD06DC0D9FF6EC0DAFFDECF56F0A0
:1024C200DDCF57F090C058F091C059F092C05AF049
:1024D20093C05BF0BCEC1DF056C090F057C091F079
:1024E20058C092F059C093F000019051911192118D
:1024F2009311D8A423D08CC06FF08DC070F08EC021
:1025020071F08FC072F06ED06DC0D9FF6EC0DAFF6D
:10251200DECF3BF0DDCF3CF090C03DF091C03EF00D
:1025220092C03FF093C040F020EC1AF03BC090F014
:102532003CC091F03DC092F03EC093F00001902962
:1025420007E1912905E1922903E19329D8B47DD7C6
:1025520093519211911104E1020E905DD8A062D7BD
:102562006DC0D9FF6EC0DAFF10EE12F0DE50E12628
:10257200DD50E222E650905DE6509159E6509259C4
:10258200E6509359D8B04ED720EE12F06D51D926AD
:102592006E51DA2290C0DEFF91C0DEFF92C0DEFFF4
:1025A20093C0DEFF20EE06F06D51D9266E51DA227D
:1025B2008C51DE268D51DE228E51DE228F51DE229B
:1025C2008C516F5F8D51705B8E51715B8F51725B5D
:1025D2006F518C5D70518D5971518E5972518F5955
:1025E200D8A060D720EE06F06D51D9266E51DA22BE
:1025F2006F51DE267051DE227151DE227251DE22CF
:10260200FF0E6F15736F010E7015746F000E71154A
:10261200756F000E7215766F735174117511761104
:10262200D8B43AD06DC0D9FF6EC0DAFFDECF0DF05C
:10263200DDCF0EF090C00FF091C010F092C011F0FB
:1026420093C012F031EC2AF00DC088F00EC089F070
:102652000FC08AF010C08BF00001885189118A11D5
:102662008B11D8B4DFD66FC073F070C074F071C034
:1026720075F072C076F00A0E05D0D89076337533B5
:1026820074337333E82EF9D7735188277451892331
:1026920075518A2376518B2320EE06F06D51D9268F
:1026A2006E51DA22FF0EDE14736F010EDE14746FA8
:1026B200000EDE14756F000EDE14766F7351741106
:1026C20075117611D8B421D020EE16F06D51D926AD
:1026D2006E51DA228851DE180AE18951DE1807E1CB
:1026E2008A51DE1804E18B51DE18D8B40ED020EEE8
:1026F20016F06D51D9266E51DA2288C0DEFF89C0EC
:10270200DEFF8AC0DEFF8BC0DEFF20EE06F06D51D9
:10271200D9266E51DA2210EE0AF06D51E1266E5181
:10272200E222DE50E65CDE50E658DE50E658DE502D
:10273200E658D8B021D520EE06F06D51D9266E515B
:10274200DA2210EE0AF06D51E1266E51E222DECF5E
:10275200E6FFDECFE6FFDECFE6FFDECFE6FF20EECE
:1027620004F06D51D9266E51DA22000EDB8A04D5AF
:10277200316E12C038F013C039F03150D8B402D0E3
:10278200040E1200010E366E0001F7A11BD2030ED9
:10279200120012EC2EF00009D8B435D2000E10D27D
:1027A200000E0B6E000E0C6E000E0D6E000E0E6E05
:1027B200090E3BEC2DF00009D8A425D2210E026EA1
:1027C200000E036E000E056E100E046E83EC2CF0EC
:1027D2000009D8B418D22144E846030BE806D8A46D
:1027E2004ED028C014F03F0E141614C015F0166A0D
:1027F200176A186A16C018F015C017F0166A156A1B
:1028020029501A6E196A2A501B6E1C6A19501B260F
:102812001A501C221B5015241D6E1C5016201E6EB1
:10282200000E17201F6E000E1820206E010E1D24B0
:10283200326E000E1E20336E000E1F20346E000E0C
:102842002020356E32C014F033C015F034C016F0BB
:1028520035C017F00A0ED8901436153616361736CC
:10286200E82EF9D712C0D9FF13C0DAFF14C0DEFF79
:1028720015C0DEFF16C0DEFF17C0DEFF8FD7146A59
:102882002BAE01D0142A010E141626C015F00F0E1D
:1028920015162A50030B020DF35015241424020FAF
:1028A200376E2750030B146E156A0A0ED890143631
:1028B2001536E82EFBD72850166E176AD8901636B2
:1028C2001736D890163617362944E846030B186E89
:1028D200196A165018261750192214501826155026
:1028E2001922010E1826000E192218C032F019C042
:1028F20033F0346A356A37C014F0F70E142632C04A
:1029020015F033C016F034C017F035C018F0142A91
:1029120005D0D8901536163617361836142EF9D734
:102922003DD0D6A548D0000E0B6E000E0C6E000EE8
:102932000D6E000E0E6E8D0E3BEC2DF00009D8A42C
:1029420062D1FF0E2AEC2EF0210E026E000E036EF3
:10295200000E056E100E046E83EC2CF00009D8B444
:1029620052D1300E376E04D0FF0E2AEC2EF037060D
:102972003750D8A4F9D72BC014F0143A0F0E1416FE
:10298200100E156E166A176A186A142A05D0D890A6
:102992001536163617361836142EF9D712C0D9FF47
:1029A20013C0DAFF15C0DEFF16C0DEFF17C0DEFF60
:1029B20018C0DEFFF3D6000E0B6E000E0C6E000E7A
:1029C2000D6E000E0E6E090E3BEC2DF00009D8A420
:1029D2001AD1210E026E000E036E000E056E100E4D
:1029E200046E83EC2CF00009D8B40DD10001D6A3FB
:1029F2002AD02EC014F0060E156ED8901432152E61
:102A0200FCD7FF0E14262B503F0B166E176AD89078
:102A120016361736186A2CAE01D0182A010E18166F
:102A220018501626000E1722010E1626000E172227
:102A3200142A03D0D89016361736142EFBD7165008
:102A4200196E175034D02BC014F0D8901432D8908D
:102A520014321F0E1416010E1424016E026A000EA7
:102A620002222C50030B156E166AD89015361636B4
:102A7200D89015361636D890153616362CC017F063
:102A8200050E186ED8901732182EFCD7070E17169F
:102A920017501526000E1622010E1524036E000E85
:102AA2001620046EFFEC2DF00150196E02501A6EC2
:102AB2001B6A1C6A12C0D9FF13C0DAFF19C0DEFFFD
:102AC2001AC0DEFF1BC0DEFF1CC0DEFF67D638C0A7
:102AD200D9FF39C0DAFFD6C0DFFF60D6000E0B6E19
:102AE200000E0C6E000E0D6E000E0E6E090E3BEC0B
:102AF2002DF00009D8A487D038C002F039C003F005
:102B0200000E056E100E046E83EC2CF00009D8A4A2
:102B120045D679D0000E0B6E000E0C6E000E0D6EB7
:102B2200000E0E6E0A0E3BEC2DF00009D8A46BD0FD
:102B320038C002F039C003F0000E056E100E046EAC
:102B420083EC2CF0E3D7000E0B6E000E0C6E000E21
:102B52000D6E000E0E6E3A0E3BEC2DF00009D8A45D
:102B620052D0040E376E0BD0FF0E2AEC2EF038C076
:102B7200D9FF39C0DAFFDF6E384A392A37063750B3
:102B8200D8B40CD6F1D7000E0B6E000E0C6E000EF0
:102B92000D6E000E0E6E8D0E3BEC2DF00009D8A4CA
:102BA20032D0FF0E2AEC2EF038C002F039C003F00A
:102BB200000E056E400E046E83EC2CF0A7D7040EB7
:102BC200366E21D01150146E156A1550000AD8A421
:102BD200F6D71450000AD8B4DCD5010AD8B4E0D52F
:102BE200020AD8B49ED6090AD8B471D7010AD8B459
:102BF20075D7070AD8B48ED7010AD8B4A4D7030A66
:102C0200D8B4C1D7DCD74EEC2EF03650120040506B
:102C12003F103E1004E1020E3D5CD8A010D020EE21
:102C220012F03B50D9263C50DA22DE503D5CDE5099
:102C32003E58DE503F58DE504058D8A0E5D1020E33
:102C4200536EF8D13DC051F03EC052F0D890523090
:102C5200466E5130456E45505126465052223BC079
:102C620030F03CC031F020EE1EF03B50D9263C50F3
:102C7200DA22DECF45F0DECF46F0DECF47F0DECF00
:102C820048F051C049F052C04AF0090E4B6ED8903C
:102C92004A3249324B2EFBD749504524326E4A50B4
:102CA2004620336E000E4720346E000E4820356EEB
:102CB200E6EC2AF0536E5350D8A4BCD1FF0E456EF9
:102CC200010E466E51C047F052C048F045504716BB
:102CD200465048163BC049F03CC04AF0475049268E
:102CE20048504A222E0E4924546E000E4A20556E38
:102CF200514A522A3DB004D041C04DF04E6A1AD01A
:102D02004150456E466A453A463AF00E46164550DF
:102D12000F0B4612F00E451654C0D9FF55C0DAFF0C
:102D2200DF500F0B476E486A455047104D6E4650B4
:102D320048104E6E54C0D9FF55C0DAFF4DC0DFFFB8
:102D420020EE04F03B50D9263C50DA22010EDF6E11
:102D52003BC030F03CC031F020EE1EF03B50D92693
:102D62003C50DA22DECF45F0DECF46F0DECF47F030
:102D7200DECF48F051C049F052C04AF0090E4B6E06
:102D8200D8904A3249324B2EFBD749504524326EF5
:102D92004A504620336E000E4720346E000E482003
:102DA200356EE6EC2AF0536E5350D8A443D1FF0E91
:102DB200456E010E466E51C047F052C048F0455074
:102DC2004716465048163BC049F03CC04AF04750AF
:102DD200492648504A222E0E4924546E000E4A209B
:102DE200556E3DB01BD041C045F042C046F043C0D5
:102DF20047F044C048F046C045F047C046F048C0DE
:102E020047F0486A0F0E451654C0D9FF55C0DAFF85
:102E1200DF50F00B4510496E495012D041C045F0C9
:102E220042C046F043C047F044C048F0050E05D00A
:102E3200D8904832473246324532E82EF9D74550CB
:102E42004F6E506A54C0D9FF55C0DAFF4FC0DFFF42
:102E5200D2D03BC030F03CC031F020EE1EF03B50EF
:102E6200D9263C50DA22DECF45F0DECF46F0DECF67
:102E720047F0DECF48F03DC049F03EC04AF03FC0C7
:102E82004BF040C04CF04AC049F04BC04AF04CC035
:102E92004BF04C6A45504924326E46504A20336EFC
:102EA20047504B20346E48504C20356EE6EC2AF0E9
:102EB200536E5350D8A4BED0FF0E456E010E466E1F
:102EC2003DC047F03EC048F0D8904736483645509E
:102ED2004716465048163BC049F03CC04AF047509E
:102EE200492648504A222E0E4924546E000E4A208A
:102EF200556E54C0D9FF55C0DAFF41C0DEFF42C053
:102F0200DDFF79D03BC030F03CC031F020EE1EF046
:102F12003B50D9263C50DA22DECF45F0DECF46F0D8
:102F2200DECF47F0DECF48F03DC049F03EC04AF068
:102F32003FC04BF040C04CF0080E05D0D8904C3248
:102F42004B324A324932E82EF9D745504924326E83
:102F520046504A20336E47504B20346E48504C2026
:102F6200356EE6EC2AF0536E5350D8A463D0FF0EB0
:102F7200456E010E466E3DC047F03EC048F0D89007
:102F820047364836D8904736483645504716465059
:102F920048163BC049F03CC04AF0475049264850C9
:102FA2004A222E0E4924546E000E4A20556E54C0F9
:102FB200D9FF55C0DAFF000EDE14456E000EDE1496
:102FC200466E000EDE14476EF00EDE14486E45505B
:102FD200411246504212475043124850441254C0C4
:102FE200D9FF55C0DAFF41C0DEFF42C0DEFF43C059
:102FF200DEFF44C0DEFF20EE04F03B50D9263C50F9
:10300200DA22010EDF6E16D03BC0D9FF3CC0DAFFD8
:10301200DF50456E466A4650000AD8A410D6455085
:10302200010AD8B40FD6030AD8B413D7010AD8B408
:1030320069D705D653501200000120EE04F06D51FD
:10304200D9266E51DA22DECF71F0DDCF72F0010E99
:1030520071257A6F000E72217B6F7A517B11D8B481
:103062000CD020EE0EF06D51D9266E51DA22DE50D0
:10307200DE10DE10DE10D8A402D0040E12000F0EF5
:103082007A15716F000E7B15726F71517211D8A48F
:10309200A4D120EE0EF06D51D9266E51DA22DE2A2D
:1030A200000EDE22DE22DE2220EE0AF06D51D9264B
:1030B2006E51DA22DE50DE10DE10DE10D8A411D0FE
:1030C2006DC0D9FF6EC0DAFF10EE08F0DE50E126C7
:1030D200DD50E222E6507A5DE6507B59D8B0CDD77A
:1030E2007CD17AC071F07BC072F0040E736FD890FD
:1030F20072337133732FFBD7FF0E746FFF0E756F30
:103102006DC0D9FF6EC0DAFF10EE02F0DE50E1268C
:10311200DD50E222E750766F776B74517627755156
:103122007723715176177251771776517711D8A498
:1031320054D16DC0D9FF6EC0DAFFDECF3BF0DDCFD8
:103142003CF020EE0AF06D51D9266E51DA22DECF24
:103152003DF0DECF3EF0DECF3FF0DECF40F020ECA0
:103162001AF03BC07CF03CC07DF03DC07EF03EC01A
:103172007FF000017F517E117D1106E1020E7C5D20
:10318200D8B002D0020E12007C2909E17D2907E1A4
:103192007E2905E17F29D8A402D0010E12006DC05C
:1031A200D9FF6EC0DAFF10EE12F0DE50E126DD50DC
:1031B200E222E6507C5DE6507D59E6507E59E650AB
:1031C2007F59D8A0DBD06F517011D8B456D76DC0DB
:1031D200D9FF6EC0DAFFDECF56F0DDCF57F020EE1A
:1031E2000AF06D51D9266E51DA22DECF58F0DECFC9
:1031F20059F0DECF5AF0DECF5BF0BCEC1DF056C0CA
:103202007CF057C07DF058C07EF059C07FF00001BD
:103212007C517D117E117F11D8A402D0070E1200BD
:103222007C057D117E117F11D8B4ACD77C2907E1D2
:103232007D2905E17E2903E17F29D8B4AED76DC08F
:10324200D9FF6EC0DAFFDECF1BF0DDCF1CF0B3EC8E
:1032520023F00009D8A4A1D76DC0D9FF6EC0DAFF50
:10326200DECF71F0DDCF72F02E0E00017125016EFE
:10327200000E7221026E000E046E000E036E020E2C
:10328200066E000E056ED4EC2DF06DC0D9FF6EC037
:10329200DAFFDECF0DF0DDCF0EF07CC00FF07DC087
:1032A20010F07EC011F07FC012F031EC2AF06DC038
:1032B200D9FF6EC0DAFF10EE2AF0DE50E126DD50B3
:1032C200E2220DC0E6FF0EC0E6FF0FC0E6FF10C00F
:1032D200E6FF000E0001796F000E786F2BD06DC0F3
:1032E200D9FF6EC0DAFF10EE04F0DE50E126DD50A9
:1032F200E222010EE76E6DC0D9FF6EC0DAFFDECFAB
:103302001BF0DDCF1CF0B3EC23F00009D8A445D7A5
:103312006DC0D9FF6EC0DAFF10EE2AF0DE50E12652
:10332200DD50E222E62A000EE622E622E622000133
:10333200784B792B6DC0D9FF6EC0DAFF10EE02F028
:10334200DE50E126DD50E222E750716F726B71515F
:10335200785D72517959D8A0C2D76DC0D9FF6EC0BD
:10336200DAFF10EE2AF0DE50E126DD50E22278513B
:10337200E65E7951E65A000EE65AE65A20EE0AF067
:103382006D51D9266E51DA227CC0DEFF7DC0DEFF90
:103392007EC0DEFF7FC0DEFF6DC0D9FF6EC0DAFFE8
:1033A200DECF0DF0DDCF0EF07CC00FF07DC010F04F
:1033B2007EC011F07FC012F031EC2AF0000120EE45
:1033C2000EF06D51D9266E51DA220DC0DEFF0EC00D
:1033D200DEFF0FC0DEFF10C0DEFF20EE04F06D51F5
:1033E200D9266E51DA227AC0DEFF7BC0DDFF0F0ED6
:1033F2007A15716F000E7B15726F050ED8907137BA
:103402007237E82EFBD76DC0D9FF6EC0DAFFDECF70
:1034120073F0DDCF74F071517327725174232E0E45
:103422007327000E742320EE12F06D51D9266E51CF
:10343200DA2273C0DEFF74C0DDFF000E12004050BE
:103442003F103E1004E1020E3D5CD8A010D020EEE9
:1034520012F03B50D9263C50DA22DE503D5CDE5061
:103462003E58DE503F58DE504058D8A008D0010EDA
:103472004C6E000E4D6E000E4E6E000E90D14C68DA
:103482004D684E684F688DD13DC054F03EC055F036
:10349200D8905530426E5430416E415054264250BD
:1034A20055223BC030F03CC031F020EE1EF03B50C4
:1034B200D9263C50DA22DECF41F0DECF42F0DECF19
:1034C20043F0DECF44F054C045F055C046F0090E3B
:1034D200476ED89046324532472EFBD7455041249D
:1034E200326E46504220336E000E4320346E000E80
:1034F2004420356EE6EC2AF00009D8A468D1FF0E0C
:10350200416E010E426E54C043F055C044F041502A
:103512004316425044163BC045F03CC046F043506F
:103522004526445046222E0E4524D96E000E4620D2
:10353200DA6EDF50476E4750506E516A544A552A30
:103542003BC030F03CC031F020EE1EF03B50D9269B
:103552003C50DA22DECF41F0DECF42F0DECF43F044
:10356200DECF44F054C045F055C046F0090E476E18
:10357200D89046324532472EFBD745504124326E11
:1035820046504220336E000E4320346E000E44201B
:10359200356EE6EC2AF00009D8A419D1FF0E416E6F
:1035A200010E426E54C043F055C044F041504316E0
:1035B200425044163BC045F03CC046F043504526BD
:1035C200445046222E0E4524D96E000E4620DA6E55
:1035D200DF50476E4750496E486A48505012495072
:1035E20051123DB007D0FF0E50144A6E0F0E511407
:1035F2004B6E0FD050C041F051C042F0040E436EEA
:10360200D89042324132432EFBD741C04AF042C0E9
:103612004BF04AC04CF04BC04DF05BD03BC030F099
:103622003CC031F020EE1EF03B50D9263C50DA224D
:10363200DECF41F0DECF42F0DECF43F0DECF44F00A
:103642003DC045F03EC046F03FC047F040C048F0A4
:1036520046C045F047C046F048C047F0486A41506E
:103662004524326E42504620336E43504720346E1A
:1036720044504820356EE6EC2AF00009D8A4A7D0C1
:10368200FF0E416E010E426E3DC043F03EC044F05B
:10369200D8904336443641504316425044163BC0FC
:1036A20045F03CC046F043504526445046222E0E7B
:1036B2004524526E000E4620536E52C0D9FF53C0AD
:1036C200DAFFDECF41F0DDCF42F041C04CF042C024
:1036D2004DF04E6A4F6A7BD03BC030F03CC031F0B7
:1036E20020EE1EF03B50D9263C50DA22DECF41F0CC
:1036F200DECF42F0DECF43F0DECF44F03DC045F0F6
:103702003EC046F03FC047F040C048F0080E05D02A
:10371200D8904832473246324532E82EF9D74150E6
:103722004524326E42504620336E43504720346E59
:1037320044504820356EE6EC2AF00009D8A447D060
:10374200FF0E416E010E426E3DC043F03EC044F09A
:10375200D89043364436D8904336443641504316C7
:10376200425044163BC045F03CC046F0435045260B
:10377200445046222E0E4524526E000E4620536EB1
:1037820052C0D9FF53C0DAFFFF0EDE144C6EFF0E9B
:10379200DE144D6EFF0EDE144E6E0F0EDE144F6EF3
:1037A20016D03BC0D9FF3CC0DAFFDF50416E426AFF
:1037B2004250000AD8A45BD64150010AD8B464D65C
:1037C200030AD8B42BD7010AD8B486D750D64CC036
:1037D2003BF04DC03CF04EC03DF04FC03EF01200F9
:1037E20000019A519B11D8A402D0090E12009AC06E
:1037F200D9FF9BC0DAFF000EDE6E000EDD6ED4C074
:10380200BAF0D5C0BBF01F0E9E17BA0E456E000E61
:10381200466E9C0E476E000E486E9E51FE0B496E20
:1038220029EC08F00001B76FB751D8A4A2D1A30EBA
:10383200CE6F000ECF6FBA0E866F000E876F9CC0E0
:1038420088F09DC089F004EC25F00001B76FCCC070
:10385200B8F0CDC0B9F0B751D8A406D0B851B9115B
:10386200D8A402D0060EB76F9EC09FF01C0E9F1701
:10387200D8B4D3D0B751D8B412D0040EB719D8A443
:1038820008D0BA0E8A6F000E8B6FA3EC28F00001ED
:10389200B76F9E87CCC0B8F0CDC0B9F012D020EE81
:1038A2000BF0B851D926B951DA22DF509F6F110EB1
:1038B2009F17D8B402D0070E03D09EA502D0080EDF
:1038C200B76FB751D8B49EA7C1D020EE0EF0B85151
:1038D200D926B951DA22000EDE6E000EDE6E210EFE
:1038E200DE6E460EDD6E20EE16F0B851D926B951C5
:1038F200DA22000EDE6E000EDE6E210EDE6E460E47
:10390200DD6E20EE0BF0B851D926B951DA22000E45
:10391200DF6E20EE1CF0B851D926B951DA22DE6AE8
:10392200DE6ADE6ADD6ABAC001F0BBC002F0B8C06E
:1039320003F0B9C004F005EC2CF001C0AFF002C0F6
:10394200B0F003C0B1F004C0B2F0B8C001F0B9C029
:1039520002F0000E036E000E046E000E056E000EE5
:10396200066EEAEC2DF0000120EE04F0BA51D926E1
:10397200BB51DA22010EDF6EAF51B011B111B2119B
:10398200D8B464D020EE2AF0BA51D926BB51DA223B
:10399200DECFB3F0DECFB4F0DECFB5F0DECFB6F0DF
:1039A200BAC056F0BBC057F0AFC058F0B0C059F023
:1039B200B1C05AF0B2C05BF05FEC24F00001B76F07
:1039C200B751D8A443D0FF0EAF259F6FFF0EB02191
:1039D200A06FFF0EB121A16FFF0EB221A26F20EEE8
:1039E2000AF0BA51D926BB51DA229FC0DEFFA0C02D
:1039F200DEFFA1C0DEFFA2C0DEFFBAC030F0BBC056
:103A020031F0B3C032F0B4C033F0B5C034F0B6C058
:103A120035F0E6EC2AF0000118D0B751D8A416D040
:103A220020EE0BF0B851D926B951DA22DFA802D024
:103A3200040E0BD09EA30AD020EE0BF0B851D9266B
:103A4200B951DA22DFA002D0070EB76FB751D8A45E
:103A520020D09EB79E8B20EE2AF0BA51D926BB51B8
:103A6200DA2210EE1AF09A51E1269B51E222DECFC1
:103A7200E6FFDECFE6FFDECFE6FFDECFE6FF20EE9B
:103A82001EF09A51D9269B51DA22B8C0DEFFB9C086
:103A9200DDFFB751D8A46DD020EE04F09A51D9269B
:103AA2009B51DA229EC0DFFF20EE05F09A51D92603
:103AB2009B51DA22000EDF6EBAC001F0BBC002F0E9
:103AC200B8C003F0B9C004F005EC2CF0000120EE00
:103AD2000EF09A51D9269B51DA2201C0DEFF02C0B4
:103AE200DEFF03C0DEFF04C0DEFF20EE1CF0B85193
:103AF200D926B951DA2210EE0AF09A51E1269B51E9
:103B0200E222DECFE6FFDECFE6FFDECFE6FFDECF4C
:103B1200E6FF20EE06F09A51D9269B51DA22DE6AA0
:103B2200DE6ADE6ADD6A20EE16F09A51D9269B51D2
:103B3200DA22DE6ADE6ADE6ADD6A9AC0D9FF9BC0DB
:103B4200DAFFBAC0DEFFBBC0DDFF9AC0D9FF9BC05F
:103B5200DAFF10EE06F0DE50E126DD50E22220EE22
:103B620002F09A51D9269B51DA22E6CFDEFFE5CF49
:103B7200DDFFB7511200585059105A105B10D8A4EB
:103B82002ED020EE0AF05650D9265750DA22DECF38
:103B920061F0DECF62F0DECF63F0DECF64F00001D1
:103BA2006151621163116411D8B410D020EE12F089
:103BB2005650D9265750DA22DE50615DDE506259E6
:103BC200DE506359DE506459D8A05BD0010E616F9C
:103BD200000E626F000E636F000E646F52D056C00B
:103BE2003BF057C03CF058C03DF059C03EF05AC0BF
:103BF2003FF05BC040F020EC1AF03BC069F03CC0E3
:103C02006AF03DC06BF03EC06CF000016C516B116C
:103C12006A110DE1020E695DD8B009D0010E566E2F
:103C2200000E576E000E586E000E596E1200692972
:103C320010E16A290EE16B290CE16C29D8A409D0A4
:103C420069C056F06AC057F06BC058F06CC059F0AA
:103C5200120020EE12F05650D9265750DA22DE50CA
:103C6200695DDE506A59DE506B59DE506C59D8A03E
:103C7200E7D758C061F059C062F05AC063F05BC028
:103C820064F061C065F062C066F063C067F064C052
:103C920068F0010E6527000E66236723682320EE75
:103CA20012F05650D9265750DA22DE50655DDE50AA
:103CB2006659DE506759DE506859D8A019D0020EF5
:103CC200656F000E666F000E676F000E686F6451BD
:103CD200631162110DE1020E615DD8B009D0000ED0
:103CE200566E000E576E000E586E000E596E120080
:103CF20056C03BF057C03CF065C03DF066C03EF098
:103D020067C03FF068C040F020EC1AF03BC069F099
:103D12003CC06AF03DC06BF03EC06CF000016951DE
:103D22006A116B116C11D8B41DD0692907E16A2997
:103D320005E16B2903E16C29D8B482D769056A11C0
:103D42006B116C11D8B47CD761516519A2E1625133
:103D520066199FE1635167199CE164516819D8B4EF
:103D6200BED797D756C03BF057C03CF065C03DF078
:103D720066C03EF067C03FF068C040F0FF0E416E83
:103D8200FF0E426EFF0E436E0F0E446E08EC16F0ED
:103D92000001606F6051D8A41ED0585059105A10BB
:103DA2005B10D8B418D056C03BF057C03CF058C096
:103DB2003DF059C03EF05AC03FF05BC040F065C0D4
:103DC20041F066C042F067C043F068C044F008ECBE
:103DD20016F00001606F6051D8A431D020EE0AF0D5
:103DE2005650D9265750DA2265C0DEFF66C0DEFF84
:103DF20067C0DEFF68C0DEFF20EE0EF05650D92607
:103E02005750DA22DE2807E1DE2805E1DE2803E149
:103E1200DE28D8B424D020EE0EF05650D9265750C2
:103E2200DA22DE06000EDE5ADE5ADE5A20EE05F0F7
:103E32005650D9265750DA22000EDB8010D060058A
:103E4200D8B409D0010E656F000E666F000E676F61
:103E5200000E686F04D0656966696769686965C044
:103E620056F066C057F067C058F068C059F01200AB
:103E720020EE04F05650D9265750DA2258C0DEFF01
:103E820059C0DDFF20EE06F05650D9265750DA22EF
:103E9200DECF6DF0DECF6EF0DECF6FF0DECF70F0F2
:103EA20000016D056E116F117011D8B414D056C097
:103EB200D9FF57C0DAFF10EE12F0DE50E126DD50D6
:103EC200E222E6506D5DE6506E59E6506F59E650BB
:103ED2007059D8A002D0020E12006D516E116F11EE
:103EE2007011D8A422D056C0D9FF57C0DAFFDECF56
:103EF20060F0DDCF61F060C0D9FF61C0DAFF030E70
:103F0200DE18D8A412D056C0D9FF57C0DAFF10EE7F
:103F120022F0DE50E126DD50E222E6CF6DF0E6CF60
:103F22006EF0E6CF6FF0E6CF70F06D516E116F114B
:103F32007011D8A423D056C0D9FF57C0DAFF10EEB3
:103F420008F0DE50E126DD50E222E650585CE650F1
:103F52005958D8B0C0D756C0D9FF57C0DAFF10EEB3
:103F620022F0DE50E126DD50E222E6CF69F0E6CF14
:103F72006AF0E6CF6BF0E6CF6CF079D056C0D9FF8D
:103F820057C0DAFF10EE02F0DE50E126DD50E222E9
:103F9200E750606F6051100DF3CF67F0F4CF68F017
:103FA20046D056C0D9FF57C0DAFFDECF3BF0DDCF97
:103FB2003CF06DC03DF06EC03EF06FC03FF070C08F
:103FC20040F020EC1AF03BC06DF03CC06EF03DC0FA
:103FD2006FF03EC070F000016D2909E16E2907E122
:103FE2006F2905E17029D8A402D0010E1200705188
:103FF2006F116E1104E1020E6D5DD8A06CD756C030
:10400200D9FF57C0DAFF10EE12F0DE50E126DD5084
:10401200E222E6506D5DE6506E59E6506F59E65069
:104022007059D8B058D76751585E6851595A67517C
:10403200585C68515958D8B0B4D756C0D9FF57C048
:10404200DAFFDECF0DF0DDCF0EF06DC00FF06EC0E7
:1040520010F06FC011F070C012F031EC2AF00DC0F8
:1040620069F00EC06AF00FC06BF010C06CF020EE69
:104072000AF05650D9265750DA226DC0DEFF6EC0C4
:10408200DEFF6FC0DEFF70C0DEFF000169516A1102
:104092006B116C11D8B41FD758C060F059C061F0D1
:1040A200040E626FD89061336033622FFBD7605188
:1040B2006925636F61516A21646F000E6B21656F20
:1040C200000E6C21666F20EE0EF05650D926575026
:1040D200DA2263C0DEFF64C0DEFF65C0DEFF66C0B9
:1040E200DEFF0F0E5814606F000E5914616F050E3B
:1040F200D89060376137E82EFBD756C0D9FF57C03A
:10410200DAFFDECF62F0DDCF63F0605162276151EA
:1041120063232E0E6227000E632320EE12F0565008
:10412200D9265750DA2262C0DEFF63C0DDFF000EDF
:1041320012000BC0D9FF0CC0DAFFDECF18F0DDCFC2
:1041420019F002D0184A192A18C0F6FF19C0F7FF51
:104152000800F5502F0AD8B4F5D718C0F6FF19C0D9
:10416200F7FF0800F5505C0AD8B4ECD720EE14F043
:104172000950D9260A50DA22DECF1BF0DDCF1CF01F
:104182001BC001F01CC002F0000E046E200E036E74
:10419200000E066E0B0E056ED4EC2DF0000E156EA1
:1041A20015C01DF01E6A1DC013F01EC014F0000ED3
:1041B200176E080E166E135018240D6E1450192027
:1041C2000E6E0DC0F6FF0EC0F7FF0800F5CF1FF010
:1041D200134A142A200E1F64A4D02F0E1F18D8B41D
:1041E200A0D05C0E1F18D8B49CD02E0E1F18D8B4C5
:1041F20006D016501D5C17501E58D8A018D0080EB5
:1042020016181710D8A404D02E0E1F18D8B402D036
:10421200060E1200000E1E6E080E1D6E000E176EA8
:104222000B0E166ED8901536D8901536C4D77F0E61
:104232001F6402D0030E1512800E1F6403D09F0E5E
:104242001F6406D0DF0E1F6443D0FD0E1F6040D0F6
:10425200135018240D6E145019200E6E0DC0F6FF67
:104262000EC0F7FF0800F5CF1AF0134A142A3F0ECA
:104272001A6403D07E0E1A6406D07F0E1A64C8D761
:10428200FD0E1A60C5D7FF0E0D6EFF0E0E6E16C024
:104292000FF017C010F00D500F260E5010220F50C5
:1042A2001D5C10501E58D8B0B3D71D501B24D96EB8
:1042B2001E501C20DA6E1FC0DFFF1D4A1E2A1D5031
:1042C2001B24D96E1E501C20DA6E1AC0DFFF26D0C6
:1042D200380E016E100E026E1FC003F0046A17EC56
:1042E2002DF001500210D8A493D7400E1F6405D0C0
:1042F2005B0E1F6002D0158209D0600E1F6406D0CB
:104302007B0E1F6003D01580200E1F5E1D501B24E4
:10431200D96E1E501C20DA6E1FC0DFFF1D4A1E2AF6
:104322004AD7135018240D6E145019200E6E0BC06C
:10433200D9FF0CC0DAFF0DC0DEFF0EC0DDFF200E7C
:104342001F6404D0000E126E000E03D0000E126E17
:10435200040E116E11C01FF01D501E10D8B458D794
:104362001BC0D9FF1CC0DAFFE50EDE18D8A406D0A8
:104372001BC0D9FF1CC0DAFF050EDF6E080E16182F
:104382001710D8A404D0D8901536D89015361550E9
:10439200030BE806D8B41F8815500C0B040AD8B4D6
:1043A2001F8620EE0BF01B50D9261C50DA221FC0AC
:1043B200DFFF000E1200126E1250D8B402D0010EAE
:1043C20012000001F7A303D00001F751120040ECE4
:1043D2002EF00A0E1D6E04D0FF0E2AEC2EF01D06E2
:1043E2001D50D8A4F9D7000E1A6E000E0B6E000EE7
:1043F2000C6E000E0D6E000E0E6E000E3BEC2DF0DC
:10440200E806D8A4C3D0AA0E0B6E010E0C6E000EE5
:104412000D6E000E0E6E080E3BEC2DF0E806D8A4D1
:1044220068D0000E1D6E130E1D24D96EDA6A000EBE
:10443200DA22FF0E2AEC2EF0DF6E1D2A030E1D6417
:10444200F2D71504D8A4A2D0AA0E1618D8A49ED0CA
:10445200030E1C6EE80E1B6E19D0000E0B6E000EC2
:104462000C6E000E0D6E400E0E6EA90E3BEC2DF082
:104472000009D8B40FD0060E116E300EE82EFED70A
:10448200112EFCD700D01B06D8A01C061B501C10F6
:10449200D8A4E3D71B501C10D8B478D0000E0B6EF2
:1044A200000E0C6E000E0D6E000E0E6E3A0E3BEC00
:1044B2002DF00009D8A46AD0000E1D6E130E1D2423
:1044C200D96EDA6A000EDA22FF0E2AEC2EF0DF6EC7
:1044D2001D2A030E1D64F2D713BC04D0000E186E01
:1044E200040E03D0000E186E0C0E176E17C01AF0D1
:1044F2004DD0000E0B6E000E0C6E000E0D6E000EF7
:104502000E6EA90E3BEC2DF0116E020E116004D05E
:10451200020E1A6EA90E03D0010E1A6E010E196E4A
:10452200030E1C6EE80E1B6E19D0000E0B6E000EF1
:104532000C6E000E0D6E000E0E6E19503BEC2DF03F
:104542000009D8B40FD0060E116E300EE82EFED739
:10455200112EFCD700D01B06D8A01C061B501C1025
:10456200D8A4E3D71B501C10D8B40ED0000E0B6E8B
:10457200020E0C6E000E0D6E000E0E6E100E3BEC57
:104582002DF00009D8B402D0000E1A6E1AC0D6F06F
:104592004EEC2EF01A50D8B417D70001F79132EC36
:1045A2002EF012D73AC01BF03BC01CF0B3EC23F044
:1045B200446E4450D8A4D4D03AC0D9FF3BC0DAFFED
:1045C200030EDE18D8A4B8D020EE05F03A50D92652
:1045D2003B50DA22DE04D8A4AFD02E0E3A24016E6C
:1045E200000E3B20026E000E046E000E036E020EE1
:1045F200066E000E056ED4EC2DF022EE2CF03A5031
:10460200D9263B50DA22550EDE6EAA0EDD6E20EE62
:104612002EF03A50D9263B50DA22520EDE6E520E5E
:10462200DE6E610EDE6E410EDD6E22EE12F03A504B
:10463200D9263B50DA22720EDE6E720EDE6E410E0B
:10464200DE6E610EDD6E20EE0EF03A50D9263B5042
:10465200DA2212EE16F03A50E1263B50E222DECF89
:10466200E6FFDECFE6FFDECFE6FFDECFE6FF20EE9F
:104672000AF03A50D9263B50DA2212EE1AF03A509A
:10468200E1263B50E222DECFE6FFDECFE6FFDECFC1
:10469200E6FFDECFE6FF20EE1AF03A50D9263B5075
:1046A200DA22DECF3CF0DECF3DF0DECF3EF0DECFD1
:1046B2003FF0010E3C24406E000E3D20416E000E84
:1046C2003E20426E000E3F20436E20EE2AF03A500A
:1046D200D9263B50DA2240C0DEFF41C0DEFF42C095
:1046E200DEFF43C0DEFF2E0E3A24116E000E3B2089
:1046F200126E20EE2AF03A50D9263B50DA22DECF53
:1047020013F0DECF14F0DECF15F0DECF16F0000E80
:10471200186E010E176E20EE01F03A50D9263B506A
:10472200DA22DF5048EC26F020EE05F03A50D92686
:104732003B50DA22000EDF6E000E116E000E126E7A
:10474200000E136E20EE01F03A50D9263B50DA22C9
:10475200DF50B9EC13F00009D8B402D0010E446E58
:1047620044501200000E296E20EE04F01B50D92690
:104772001C50DA22DF50D8B49FD020EE2AF01B5012
:10478200D9261C50DA22DECF2CF0DECF2DF0DECF80
:104792002EF0DECF2FF02E0E1B24116E000E1C20E9
:1047A200126E2CC013F02DC014F02EC015F02FC0C5
:1047B20016F0000E186E010E176E20EE01F01B505F
:1047C200D9261C50DA22DF5048EC26F00009D8B472
:1047D20003D0010E296E70D020EE04F01B50D926B2
:1047E2001C50DA22000EDF6E20EE16F01B50D92686
:1047F2001C50DA2210EE1EF01B50E1261C50E22261
:10480200E6CF21F0E6CF22F0E6CF23F0E6CF24F088
:1048120021502C5C256E22502D58266E23502E5886
:10482200276E24502F58286EDE50255CDE50265805
:10483200DE502758DE502858D8B03ED020EE03F084
:104842001B50D9261C50DA22DF501D6E1D502A6ED5
:104852002B6A2B5004E1020E2A5CD8A02DD020EE48
:1048620016F01B50D9261C50DA22DE502C26DE50C0
:104872002D22DE502E22DD502F222E0E1B24116EF1
:10488200000E1C20126E2CC013F02DC014F02EC08E
:1048920015F02FC016F0000E186E010E176E20EEE6
:1048A20001F01B50D9261C50DA22DF5048EC26F0CA
:1048B2002A06D8A02B06CDD7295012005B505A10D9
:1048C200591004E1020E585CD8A010D020EE12F06C
:1048D2005650D9265750DA22DE50585CDE505958CD
:1048E200DE505A58DE505B58D8A003D0020E0001A9
:1048F20031D0000E0001606F74D056C03BF057C03B
:104902003CF058C03DF059C03EF05AC03FF05BC089
:1049120040F020EC1AF03BC061F03CC062F03DC0B8
:1049220063F03EC064F000016151621163116411D1
:10493200D8B467D06105621163116411D8B4D6D7B7
:1049420061290AE1622908E1632906E16429D8A400
:1049520003D0010E606F55D056C03BF057C03CF0FB
:1049620058C03DF059C03EF05AC03FF05BC040F025
:10497200000E416E000E426E000E436E000E446E3B
:1049820008EC16F00001606F6051D8A43AD020EE16
:104992000EF05650D9265750DA22DE2807E1DE28DB
:1049A20005E1DE2803E1DE28D8B413D020EE0EF0B4
:1049B2005650D9265750DA22DE2A000EDE22DE2297
:1049C200DE2220EE05F05650D9265750DA22000E8C
:1049D200DB8061C058F062C059F063C05AF064C015
:1049E2005BF020EE12F05650D9265750DA22DE50F4
:1049F200585CDE505958DE505A58DE505B58D8A0E9
:104A02007CD76051120088C0F6FF89C0F7FF08000A
:104A1200F5502F0AD8B409D088C0F6FF89C0F7FF35
:104A22000800F5505C0AD8A403D00001884B892BFA
:104A3200000120EE06F08651D9268751DA22DE6A7D
:104A4200DE6ADE6ADD6A88C0F6FF89C0F7FF200EE3
:104A52000800F56017D086C056F087C057F0000EE8
:104A6200596E000E586E39EC1FF000018D6F20EE6A
:104A720012F08651D9268751DA22000EDE6E000E20
:104A8200DD6E62D086C009F087C00AF0880E0B6E18
:104A9200000E0C6E9AEC20F000018D6F8D51D8A49F
:104AA20053D086C080F087C081F048EC27F0000127
:104AB2008D6F20EE14F08651D9268751DA2210EE3E
:104AC2000BF0DE50E126DD50E222E7508C6F8D5173
:104AD200D8B408D0040E8D19D8B48CB535D0050ED3
:104AE2008D6F32D08CB530D020EE12F08651D9269F
:104AF2008751DA22DECF8AF0DDCF8BF020EE0BF089
:104B02008A51D9268B51DA22DFA8E9D786C0D9FF8C
:104B120087C0DAFFDECF01F0DDCF02F08AC003F0FA
:104B22008BC004F005EC2CF0000120EE06F086515B
:104B3200D9268751DA2201C0DEFF02C0DEFF03C0A0
:104B4200DEFF04C0DEFF9ED78D51120045C002F089
:104B520046C003F039EC2BF04B6E4B50D8A495D0E5
:104B620020EE04F04550D9264650DA22DFAA8DD035
:104B720045C0D9FF46C0DAFFDECF30F0DDCF31F0DD
:104B820020EE1AF04550D9264650DA22DECF32F016
:104B9200DECF33F0DECF34F0DECF35F0E6EC2AF0B4
:104BA2004B6E4B50D8A471D020EE1EF04550D92642
:104BB2004650DA22DECF4CF0DDCF4DF020EE0BF086
:104BC2004C50D9264D50DA22000EDB8A20EE0AF034
:104BD2004550D9264650DA2210EE1CF04C50E12600
:104BE2004D50E222DECFE6FFDECFE6FFDECFE6FF6C
:104BF200DECFE6FF4CC001F04DC002F020EE0EF019
:104C02004550D9264650DA22DECF03F0DECF04F03B
:104C1200DECF05F0DECF06F0EAEC2DF020EE16F046
:104C22004C50D9264D50DA22000EDE6E000EDE6E9A
:104C3200210EDE6E460EDD6E20EE12F04C50D926AD
:104C42004D50DA22000EDE6E000EDD6E20EE04F014
:104C52004550D9264650DA22DF0EDF1645C0D9FF6D
:104C620046C0DAFF10EE04F0DE50E126DD50E2220B
:104C7200010EE76E45C0D9FF46C0DAFFDECF3AF03B
:104C8200DDCF3BF0D3EC22F04B6E4B5012001A6E8C
:104C92001A50D8A404D017501810D8A402D0040E69
:104CA20012000001F7A102D0030E1200F7A502D0F4
:104CB200020E1200D6B708D0090ED8901336143659
:104CC20015361636E82EF9D717041810D8A41DD0B9
:104CD20013C00BF014C00CF015C00DF016C00EF08E
:104CE200180E3BEC2DF00009D8A44FD011C004F0EF
:104CF20012C005F0FE0E066E44EC2CF00009D8B48A
:104D020044D0000E186E000E3FD0D6C019F0060E29
:104D12001916D8B409D017C00BF018C00CF00D6AE0
:104D22000E6A970E3BEC2DF013C00BF014C00CF082
:104D320015C00DF016C00EF0190E3BEC2DF0000957
:104D4200D8A423D011C004F012C005F0FC0E066EE8
:104D520044EC2CF00009D8B409D0020E1226170632
:104D6200D8A0180617501810D8A4ECD7000E046E5D
:104D7200000E056EFD0E066E44EC2CF00009D8A460
:104D820004D0000E186E010E176E4EEC2EF0175066
:104D92001810D8B402D0010E1200000E120080C00A
:104DA20056F081C057F0000E596E000E586E39EC65
:104DB2001FF00001896F8951D8A461D0000E886F5D
:104DC200000E876F80C0D9FF81C0DAFFDECF30F0DE
:104DD200DDCF31F020EE0EF08051D9268151DA225A
:104DE200DECF32F0DECF33F0DECF34F0DECF35F07F
:104DF200E6EC2AF00001896F8951D8A440D020EE58
:104E020012F08051D9268151DA22DECF84F0DDCF33
:104E120085F084C0D9FF85C0DAFFE50EDE18D8B46C
:104E220011D020EE12F08051D9268151DA22DECF44
:104E320084F0DDCF85F084C0D9FF85C0DAFFDF5072
:104E4200D8A40AD0874B882B8251871909E1835154
:104E52008819D8B414D004D0000E886F000E876F62
:104E620080C06DF081C06EF0000E706F010E6F6F2A
:104E72001DEC18F00001896F8951D8B4A3D7040E34
:104E82008919D8A402D0070E896F8951120080C0F7
:104E920056F081C057F0000E596E000E586E39EC74
:104EA2001FF00001856F8551D8B403D000018551F0
:104EB200120080C0D9FF81C0DAFFDECF30F0DDCF33
:104EC20031F020EE0EF08051D9268151DA22DECF68
:104ED20032F0DECF33F0DECF34F0DECF35F0E6EC69
:104EE2002AF00001856F8551D8A4E0D720EE12F098
:104EF2008051D9268151DA22DECF83F0DDCF84F0D2
:104F020083C0D9FF84C0DAFFDF50826F8251D8A4F8
:104F120003D0040E856FCAD720EE0BF08351D92639
:104F22008451DA22DFB618D083C001F084C002F0C7
:104F320020EE14F08051D9268151DA22DECF03F01F
:104F4200DDCF04F0000E066E0B0E056EB9EC2CF0F0
:104F520001500210D8B4AAD780C06DF081C06EF0A3
:104F6200000E0001706F000E6F6F1DEC18F0000153
:104F7200856F8551D8A49AD79CD720EE04F03B5078
:104F8200D9263C50DA22000EDF6E20EE2AF03B508A
:104F9200D9263C50DA22FF0EDE6EFF0EDE6EFF0EC9
:104FA200DE6EFF0EDD6E3BC030F03CC031F03DC026
:104FB20032F03EC033F03FC034F040C035F0E6EC92
:104FC2002AF00009D8B402D0030E120022EE2CF00F
:104FD2003B50D9263C50DA22550EDE1804E1AA0EC7
:104FE200DE18D8B402D0020E120020EE64F03B505C
:104FF200D9263C50DA22FF0EDE14416EFF0EDE147B
:10500200426EFF0EDE14436E000EDE14446E460E38
:1050120041180AE1410E421807E1540E43184410A8
:10502200D8A402D0000E120020EE80F03B50D92608
:105032003C50DA22FF0EDE14416EFF0EDE14426E89
:10504200FF0EDE14436E000EDE14446E460E41184F
:1050520008E1410E421805E1540E43184410D8B439
:10506200E1D7010E120009680A6801C0D9FF02C027
:10507200DAFFDE50DE10D8B45BD001C0D9FF02C027
:10508200DAFFDECF0DF0DDCF0EF002D00D4A0E2A90
:105092000DC0F6FF0EC0F7FF200E0800F56409D020
:1050A2000DC0F6FF0EC0F7FF0800F5503A0AD8A46B
:1050B200EDD70DC0F6FF0EC0F7FF0800F5503A0A13
:1050C200D8A43BD001C0D9FF02C0DAFFDECF07F07F
:1050D200DDCF08F007C0F6FF08C0F7FF0800F5CFE4
:1050E20003F0D00E03240B6E0C6AFF0E0C22074A4B
:1050F200082A0C501DE10A0E0B5CD8B019D00D50D5
:10510200071816E10E500818D8A412D00B500C1034
:10511200D8A40ED00BC009F00CC00AF00D4A0E2A1A
:1051220001C0D9FF02C0DAFF0DC0DEFF0EC0DDFFF5
:1051320009C001F00AC002F01200000E0A6E000E51
:10514200096EF6D78AC080F08BC081F0000E000194
:10515200836F010E826FD0EC26F000018C6F8C51B0
:10516200D8A458D08AC0D9FF8BC0DAFFDECF30F086
:10517200DDCF31F020EE0EF08A51D9268B51DA22A2
:10518200DECF32F0DECF33F0DECF34F0DECF35F0DB
:10519200E6EC2AF000018C6F8C51D8A43BD020EEB3
:1051A20012F08A51D9268B51DA22DECF01F0DDCFFF
:1051B20002F0000E046E000E036E000E066E200E4C
:1051C200056ED4EC2DF0000120EE12F08A51D926A2
:1051D2008B51DA22DECF01F0DDCF02F020EE14F0A7
:1051E2008A51D9268B51DA22DECF03F0DDCF04F0CB
:1051F200000E066E0B0E056E74EC29F08AC0D9FF04
:105202008BC0DAFF10EE04F0DE50E126DD50E22220
:10521200010EE76E00018C511200196E1950D8A4CC
:1052220004D017501810D8A402D0040E12000001A6
:10523200F7A102D0030E1200D6B708D0090ED890FB
:105242001336143615361636E82EF9D7185008E1FB
:10525200020E175CD8B004D0000E1B6E110E03D0E4
:10526200000E1B6E120E1A6E1AC01CF013C00BF049
:1052720014C00CF015C00DF016C00EF01C503BEC23
:105282002DF00009D8A425D011C002F012C003F0FD
:10529200020E056E000E046E83EC2CF00009D8B4E9
:1052A20009D0020E12261706D8A018061750181099
:1052B200D8A4EAD7120E1C18D8A40BD0000E0B6E7D
:1052C200000E0C6E000E0D6E000E0E6E0C0E3BEC00
:1052D2002DF04EEC2EF017501810D8B402D0010E5B
:1052E2001200000E120001C009F002C00AF003C051
:1052F2000BF004C00CF02CD00BC0F6FF0CC0F7FF73
:10530200000EF86E0F0EF76407D00900F5CF07F014
:105312000900F5CF08F008D0F6CFE9FFF7CFEAFF92
:10532200EECF07F0EECF08F009C0D9FF0AC0DAFFCE
:1053320007C0DEFF08C0DDFF020E0926000E0A22AA
:10534200020E0B26000E0C22020E055E000E065AFD
:105352000650D2E1020E055CD8A01BD0CDD70BC0FF
:10536200F6FF0CC0F7FF000EF86E09C0D9FF0AC0A5
:10537200DAFF0F0EF76403D00800F55005D0F6CF20
:10538200E9FFF7CFEAFFEF50DF6E0B4A0C2A094A1A
:105392000A2A0506D8A006060528E1E10628D8B49F
:1053A2001200DDD739EC2EF0000E0F01396F000E1E
:1053B200936E000E8A6E010E816E0A0E526E0D0EF3
:1053C200536E370E546E100E556E010E566E8EECE5
:1053D2002AF00009D8A443D0000E816ED70E000136
:1053E2009A6F000E9B6F470E9C6F100E9D6F130EEF
:1053F2009E6FF1EC1BF00009D8A431D00001E151FD
:10540200E211E311E411D8B411D0D70E6D6F000E82
:105412006E6FE1C06FF0E2C070F0E3C071F0E4C003
:1054220072F0B2EC10F00009D8A413D0D70E00012C
:105432006D6F000E6E6F010E6F6F100E706F000EAB
:10544200726F360E716FD00E736F000E746F00ECB8
:105452000DF0D70E4E6E000E4F6EB7EC2DF0FFD74B
:10546200020E0F5E000E105A115A125A20EE12F05E
:105472000D50D9260E50DA22FE0EDE24136EFF0ED8
:10548200DE20146EFF0EDE20156EFF0EDE20166E7D
:1054920013500F5C145010581550115816501258D2
:1054A200D8A009D0000E0D6E000E0E6E000E0F6E0B
:1054B200000E106E120020EE26F00D50D9260E506E
:1054C200DA22DECF13F0DECF14F0DECF15F0DECF1E
:1054D20016F020EE02F00D50D9260E50DA22DF50DF
:1054E200176E1750016E026A036A046A0FC005F054
:1054F20010C006F011C007F012C008F0ECEC2CF05E
:10550200135001240D6E145002200E6E155003200C
:105512000F6E16500420106E120054C05AF055C07F
:105522005BF05A0E016E000E026E34EC28F001C0E0
:105532005CF002C05DF05DAE02D00B0E1200D8909E
:105542005C34D96E5D34DA6ED40ED926000EDA22BE
:10555200DECF58F0DDCF59F058505910D8B406D0EC
:1055620058C0D9FF59C0DAFF000EDF6E52505310F7
:10557200D8B406D052C0D9FF53C0DAFF000EDF6E96
:10558200D8905C34D96E5D34DA6ED40ED926000E12
:10559200DA2252C0DEFF53C0DDFF52505310D8B49E
:1055A20003D05604D8B402D0000E1200520E456E3B
:1055B200000E466E540E476E000E486E000E496E87
:1055C20029EC08F0576E57501200000E3A6E20EE8A
:1055D2002AF03050D9263150DA223250DE180AE150
:1055E2003350DE1807E13450DE1804E13550DE187E
:1055F200D8B43CD030C01BF031C01CF0B3EC23F067
:105602003A6E3A50D8A432D02E0E3024116E000ECB
:105612003120126E32C013F033C014F034C015F0D2
:1056220035C016F0000E186E010E176E20EE01F056
:105632003050D9263150DA22DF500EEC29F0000921
:10564200D8B406D03268336834683568010E3A6ED1
:1056520020EE2AF03050D9263150DA2232C0DEFF55
:1056620033C0DEFF34C0DEFF35C0DEFF3A50120029
:1056720002C008F003C009F008500910D8B43ED0A7
:1056820008C0D9FF09C0DAFFDE50DE10D8B436D028
:1056920008C0D9FF09C0DAFFDECF04F0DDCF05F084
:1056A20004C0D9FF05C0DAFFDF50D8B427D020EEFE
:1056B20002F00850D9260950DA2208C0E1FF09C0D9
:1056C200E2FF00EE06F0E650E926E550EA22DE505F
:1056D200EE1814E1DE50EE18D8A410D008C0D9FF9D
:1056E20009C0DAFF10EE01F0DE50E126DD50E222C1
:1056F200E75021EC2EF0046E04A002D0090E120035
:10570200000E1200000E096E000E0A6E000E0B6EE5
:10571200000E0C6E0550061007100810D8B42AD0DF
:10572200010E0D6E06D0D8900536063607360836BD
:105732000D2A08AEF8D7D89009360A360B360C3641
:105742000550015C0650025807500358085004588F
:10575200D8A009D00550015E0650025A0750035ADC
:105762000850045A0980D8900832073206320532AE
:105772000D2EE1D709C001F00AC002F00BC003F000
:105782000CC004F012000A6E0C0E0A18D8B409D02C
:105792004EEC2EF012EC2EF00009D8A402D0FF0E2F
:1057A20012000A5040092AEC2EF007502AEC2EF083
:1057B20006502AEC2EF005502AEC2EF004502AEC6A
:1057C2002EF0010E096E0A50D8A402D0950E096E71
:1057D200080E0A18D8A402D0870E096E09502AECC6
:1057E2002EF00C0E0A18D8A403D0FF0E2AEC2EF0CD
:1057F2000A0E096EFF0E2AEC2EF0086E08AE02D0D9
:10580200092EF8D7085012001A0E0324D96E000E82
:105812000420DA6EDECF05F0DDCF06F005C00BF016
:1058220006C00CF00D6A0E6A01C0D9FF02C0DAFF91
:10583200030EDE18D8A41ED0140E0324D96E000E57
:105842000420DA6EDECF05F0DDCF06F00550076EDC
:105852000650086E096A0A6A08C00AF007C009F011
:10586200086A076A07500B1208500C1209500D12F1
:105872000A500E120BC001F00CC002F00DC003F072
:105882000EC004F0120099EC2DF00009D8A402D049
:10589200000E120006502AEC2EF0FD0E0618D8B4A7
:1058A2002FD0020E086E000E076E04C0F6FF05C070
:1058B200F7FF000EF86E0F0EF76403D00800F550E4
:1058C20005D0F6CFE9FFF7CFEAFFEF502AEC2EF032
:1058D200044A052A0706D8A0080607500810D8A4CB
:1058E200E4D7FF0E2AEC2EF0FF0E2AEC2EF0FF0E6C
:1058F2002AEC2EF0096E09501F0B050AD8A4C8D74E
:10590200010E1200070E076ED00E066E0ED0FF0EAD
:105912002AEC2EF0086E0828D8A40BD0850EE82EAB
:10592200FED700F00606D8A0070606500710D8A436
:10593200EED7FE0E0818D8B402D0000E1200FF0EE9
:105942002AEC2EF002C0D9FF03C0DAFFDF6E024A52
:10595200032A0406D8A0050604500510D8A4EFD7E0
:10596200FF0E2AEC2EF0FF0E2AEC2EF0010E120092
:1059720001C009F002C00AF003C00BF004C00CF031
:10598200000E0E6E000E0D6E0506D8A00606052846
:1059920003E10628D8B41AD009C0D9FF0AC0DAFF39
:1059A200094A0A2ADF50076E0BC0D9FF0CC0DAFF82
:1059B2000B4A0C2ADF50086E0850075C0D6E0E6A07
:1059C200D8A00E060D500E10D8B4DED70DC001F0CF
:1059D2000EC002F01200000E096E000E0A6E000EDA
:1059E2000B6E000E0C6E01A008D005500926065061
:1059F2000A2207500B2208500C22D8900536063690
:105A020007360836D890043203320232013201508E
:105A1200021003100410D8A4E6D709C001F00AC08E
:105A220002F00BC003F00CC004F0120002D0014AD5
:105A3200022A01C0F6FF02C0F7FF0800F550000974
:105A4200D8B40FD001C0F6FF02C0F7FF0800F5502E
:105A5200056E066A03500518EAE104500618D8A438
:105A6200E6D701C0F6FF02C0F7FF0800F550016E4D
:105A7200026A12000F6E0FAE12D00F9E000E046E5D
:105A8200000E056E000E066E000E076E370EC4EC99
:105A92002BF0106E010E106402D0105012000BC0D9
:105AA20004F00CC005F00DC006F00EC007F00F5058
:105AB200C4EC2BF01200000E8D6E000E8C6E000EE8
:105AC200896E000E8A6E010E8B6E070E966E9268BC
:105AD2009368D60E946E95680F013B69C40E3A6FB7
:105AE2003F0E396F070E3C6F2F0E386F000E616E3E
:105AF200F18E1200A60EF66E5C0EF76E000EF86EB8
:105B02000900F5CFF7F00DEE0AF012EE2EF0EE6A74
:105B1200E550E150FCE1E250FAE100EED2F0250E50
:105B2200EE6AE806FDE1000EF86E0001D3EF29F0FF
:105B3200130E036E880E026E0DD0FF0E2AEC2EF0AD
:105B4200FF0AD8B40BD0850EE82EFED700F002066D
:105B5200D8A0030602500310D8A4EFD702500310B6
:105B6200D8B402D0010E1200000E12004EC045F051
:105B72004FC046F0A7EC25F0506E5050D8A412004A
:105B82004EC002F04FC003F039EC2BF0506E505073
:105B9200D8A412004EC0D9FF4FC0DAFF000EDE6E4D
:105BA200000EDD6E120001C007F002C008F008D03E
:105BB20007C0D9FF08C0DAFF03C0DFFF074A082A7F
:105BC2000506D8A006060528F3E10628D8B4120077
:105BD200EFD720EE1AF00150D9260250DA2203C084
:105BE200DEFF04C0DDFF20EE14F00150D926025082
:105BF200DA2205C0DEFF06C0DDFF120001500302FB
:105C0200F3CF05F0F4CF06F001500402F35006265C
:105C120002500302F350062605C001F006C002F04E
:105C220012008B90FF0E2AEC2EF099EC2DF0000959
:105C3200D8B402D0010E12004EEC2EF0000E12006B
:105C4200016E0150D8B402D0010E12000001F751CA
:105C52001200016EC69E01C0C9FFC7A0FED7C9507F
:105C62001200400EC76E200EC66E000EC86E1200E5
:105C72005CEC2DF047EC2EF040EC2EF01200400EC2
:105C8200C76E220EC66E000EC86E1200300ED36EA4
:105C9200040ED26E000E9B6E12008B80FF0E2AEC59
:055CA2002EF0120001CC
:020000040020DA
:08000000FFFFFFFFFFFFFFFF00
:020000040030CA
:0E000000FF231F3CFFBD85FF0FC00FE00F4028
:00000001FF
