:020000040000FA
:040000009BEF7FF003
:10FF36000001DAEF7FF0300ED36E040ED26E000EA3
:10FF46009B6E1200400EC76E220EC66E000EC86E65
:10FF56001200BBEC7FF09EEC7FF0A5EC7FF0120068
:10FF6600016EC69E01C0C9FFC7A0FED7C9501200C8
:10FF7600000E8D6E000E8C6E000E896E000E8A6E5F
:10FF8600010E8B6E070E966E92689368D60E946E6F
:10FF960095680F013B69C40E3A6F3F0E396F070E25
:10FFA6003C6F2F0E386F000E616EF18E1200ACECB6
:10FFB6007FF0000E0F01396F000E936E000E8A6EF1
:10FFC6008150D8A406D0010E816E410EB3EC7FF0AD
:10FFD60005D0000E816E420EB3EC7FF0000E036E6C
:10FFE600000E026E024A032A03BEFCD7400E025CD4
:0AFFF6001F0E0358D8B0E4D7F5D76A
:020000040020DA
:08000000FFFFFFFFFFFFFFFF00
:020000040030CA
:0E000000FF221F3CFFBD85FF0FC00FE00F4029
:00000001FF
