:020000040000FA
:04000000AAEF7FF0F4
:10FF54000001E1EF7FF0300ED36E040ED26E000E7E
:10FF64009B6E1200400EC76E220EC66E000EC86E47
:10FF74001200C2EC7FF0ADEC7FF0B4EC7FF0120025
:10FF8400000E8D6E000E8C6E000E896E000E8A6E51
:10FF9400010E8B6E070E966E92689368D60E946E61
:10FFA40095680F013B69C40E3A6F3F0E396F070E17
:10FFB4003C6F2F0E386F000E616EF18E1200BBEC99
:10FFC4007FF0000E0F01396F000E936E000E8A6EE3
:10FFD4008150D8A402D0010E01D0000E816E000E13
:10FFE400026E000E016E014A022A02BEFCD7400EC8
:0CFFF400015C1F0E0258D8B0EBD7F5D707
:020000040020DA
:08000000FFFFFFFFFFFFFFFF00
:020000040030CA
:0E000000FF221F3CFFBD85FF0FC00FE00F4029
:00000001FF
